{
  "contractName": "SolnSquareVerifier",
  "abi": [
    {
      "constant": true,
      "inputs": [
        {
          "name": "tokenId",
          "type": "uint256"
        }
      ],
      "name": "name",
      "outputs": [
        {
          "name": "",
          "type": "string"
        }
      ],
      "payable": false,
      "stateMutability": "view",
      "type": "function"
    },
    {
      "constant": true,
      "inputs": [
        {
          "name": "interfaceId",
          "type": "bytes4"
        }
      ],
      "name": "supportsInterface",
      "outputs": [
        {
          "name": "",
          "type": "bool"
        }
      ],
      "payable": false,
      "stateMutability": "view",
      "type": "function"
    },
    {
      "constant": true,
      "inputs": [
        {
          "name": "tokenId",
          "type": "uint256"
        }
      ],
      "name": "getApproved",
      "outputs": [
        {
          "name": "",
          "type": "address"
        }
      ],
      "payable": false,
      "stateMutability": "view",
      "type": "function"
    },
    {
      "constant": false,
      "inputs": [
        {
          "name": "to",
          "type": "address"
        },
        {
          "name": "tokenId",
          "type": "uint256"
        }
      ],
      "name": "approve",
      "outputs": [],
      "payable": false,
      "stateMutability": "nonpayable",
      "type": "function"
    },
    {
      "constant": true,
      "inputs": [],
      "name": "totalSupply",
      "outputs": [
        {
          "name": "",
          "type": "uint256"
        }
      ],
      "payable": false,
      "stateMutability": "view",
      "type": "function"
    },
    {
      "constant": false,
      "inputs": [
        {
          "name": "from",
          "type": "address"
        },
        {
          "name": "to",
          "type": "address"
        },
        {
          "name": "tokenId",
          "type": "uint256"
        }
      ],
      "name": "transferFrom",
      "outputs": [],
      "payable": false,
      "stateMutability": "nonpayable",
      "type": "function"
    },
    {
      "constant": false,
      "inputs": [
        {
          "name": "_myid",
          "type": "bytes32"
        },
        {
          "name": "_result",
          "type": "string"
        }
      ],
      "name": "__callback",
      "outputs": [],
      "payable": false,
      "stateMutability": "nonpayable",
      "type": "function"
    },
    {
      "constant": true,
      "inputs": [
        {
          "name": "owner",
          "type": "address"
        },
        {
          "name": "index",
          "type": "uint256"
        }
      ],
      "name": "tokenOfOwnerByIndex",
      "outputs": [
        {
          "name": "",
          "type": "uint256"
        }
      ],
      "payable": false,
      "stateMutability": "view",
      "type": "function"
    },
    {
      "constant": false,
      "inputs": [
        {
          "name": "_myid",
          "type": "bytes32"
        },
        {
          "name": "_result",
          "type": "string"
        },
        {
          "name": "_proof",
          "type": "bytes"
        }
      ],
      "name": "__callback",
      "outputs": [],
      "payable": false,
      "stateMutability": "nonpayable",
      "type": "function"
    },
    {
      "constant": false,
      "inputs": [
        {
          "name": "from",
          "type": "address"
        },
        {
          "name": "to",
          "type": "address"
        },
        {
          "name": "tokenId",
          "type": "uint256"
        }
      ],
      "name": "safeTransferFrom",
      "outputs": [],
      "payable": false,
      "stateMutability": "nonpayable",
      "type": "function"
    },
    {
      "constant": true,
      "inputs": [
        {
          "name": "tokenId",
          "type": "uint256"
        }
      ],
      "name": "symbol",
      "outputs": [
        {
          "name": "",
          "type": "string"
        }
      ],
      "payable": false,
      "stateMutability": "view",
      "type": "function"
    },
    {
      "constant": true,
      "inputs": [
        {
          "name": "index",
          "type": "uint256"
        }
      ],
      "name": "tokenByIndex",
      "outputs": [
        {
          "name": "",
          "type": "uint256"
        }
      ],
      "payable": false,
      "stateMutability": "view",
      "type": "function"
    },
    {
      "constant": false,
      "inputs": [
        {
          "name": "a",
          "type": "uint256[2]"
        },
        {
          "name": "b",
          "type": "uint256[2][2]"
        },
        {
          "name": "c",
          "type": "uint256[2]"
        },
        {
          "name": "input",
          "type": "uint256[2]"
        }
      ],
      "name": "verifyTx",
      "outputs": [
        {
          "name": "r",
          "type": "bool"
        }
      ],
      "payable": false,
      "stateMutability": "nonpayable",
      "type": "function"
    },
    {
      "constant": true,
      "inputs": [
        {
          "name": "tokenId",
          "type": "uint256"
        }
      ],
      "name": "ownerOf",
      "outputs": [
        {
          "name": "",
          "type": "address"
        }
      ],
      "payable": false,
      "stateMutability": "view",
      "type": "function"
    },
    {
      "constant": false,
      "inputs": [],
      "name": "Pause",
      "outputs": [],
      "payable": false,
      "stateMutability": "nonpayable",
      "type": "function"
    },
    {
      "constant": true,
      "inputs": [
        {
          "name": "owner",
          "type": "address"
        }
      ],
      "name": "balanceOf",
      "outputs": [
        {
          "name": "",
          "type": "uint256"
        }
      ],
      "payable": false,
      "stateMutability": "view",
      "type": "function"
    },
    {
      "constant": true,
      "inputs": [],
      "name": "getOwner",
      "outputs": [
        {
          "name": "",
          "type": "address"
        }
      ],
      "payable": false,
      "stateMutability": "view",
      "type": "function"
    },
    {
      "constant": false,
      "inputs": [
        {
          "name": "to",
          "type": "address"
        },
        {
          "name": "approved",
          "type": "bool"
        }
      ],
      "name": "setApprovalForAll",
      "outputs": [],
      "payable": false,
      "stateMutability": "nonpayable",
      "type": "function"
    },
    {
      "constant": false,
      "inputs": [
        {
          "name": "from",
          "type": "address"
        },
        {
          "name": "to",
          "type": "address"
        },
        {
          "name": "tokenId",
          "type": "uint256"
        },
        {
          "name": "_data",
          "type": "bytes"
        }
      ],
      "name": "safeTransferFrom",
      "outputs": [],
      "payable": false,
      "stateMutability": "nonpayable",
      "type": "function"
    },
    {
      "constant": true,
      "inputs": [
        {
          "name": "tokenId",
          "type": "uint256"
        }
      ],
      "name": "tokenURI",
      "outputs": [
        {
          "name": "",
          "type": "string"
        }
      ],
      "payable": false,
      "stateMutability": "view",
      "type": "function"
    },
    {
      "constant": true,
      "inputs": [
        {
          "name": "owner",
          "type": "address"
        },
        {
          "name": "operator",
          "type": "address"
        }
      ],
      "name": "isApprovedForAll",
      "outputs": [
        {
          "name": "",
          "type": "bool"
        }
      ],
      "payable": false,
      "stateMutability": "view",
      "type": "function"
    },
    {
      "constant": false,
      "inputs": [
        {
          "name": "newOwner",
          "type": "address"
        }
      ],
      "name": "transferOwnership",
      "outputs": [],
      "payable": false,
      "stateMutability": "nonpayable",
      "type": "function"
    },
    {
      "inputs": [
        {
          "name": "name",
          "type": "string"
        },
        {
          "name": "symbol",
          "type": "string"
        }
      ],
      "payable": false,
      "stateMutability": "nonpayable",
      "type": "constructor"
    },
    {
      "anonymous": false,
      "inputs": [
        {
          "indexed": false,
          "name": "index",
          "type": "bytes32"
        },
        {
          "indexed": false,
          "name": "senderAddress",
          "type": "address"
        }
      ],
      "name": "SolutionAdded",
      "type": "event"
    },
    {
      "anonymous": false,
      "inputs": [
        {
          "indexed": false,
          "name": "s",
          "type": "string"
        }
      ],
      "name": "Verified",
      "type": "event"
    },
    {
      "anonymous": false,
      "inputs": [
        {
          "indexed": true,
          "name": "from",
          "type": "address"
        },
        {
          "indexed": true,
          "name": "to",
          "type": "address"
        },
        {
          "indexed": true,
          "name": "tokenId",
          "type": "uint256"
        }
      ],
      "name": "Transfer",
      "type": "event"
    },
    {
      "anonymous": false,
      "inputs": [
        {
          "indexed": true,
          "name": "owner",
          "type": "address"
        },
        {
          "indexed": true,
          "name": "approved",
          "type": "address"
        },
        {
          "indexed": true,
          "name": "tokenId",
          "type": "uint256"
        }
      ],
      "name": "Approval",
      "type": "event"
    },
    {
      "anonymous": false,
      "inputs": [
        {
          "indexed": true,
          "name": "owner",
          "type": "address"
        },
        {
          "indexed": true,
          "name": "operator",
          "type": "address"
        },
        {
          "indexed": false,
          "name": "approved",
          "type": "bool"
        }
      ],
      "name": "ApprovalForAll",
      "type": "event"
    },
    {
      "anonymous": false,
      "inputs": [
        {
          "indexed": true,
          "name": "oldOwner",
          "type": "address"
        },
        {
          "indexed": true,
          "name": "newOnwer",
          "type": "address"
        }
      ],
      "name": "TransferOwnership",
      "type": "event"
    },
    {
      "constant": false,
      "inputs": [
        {
          "name": "a",
          "type": "uint256[2]"
        },
        {
          "name": "b",
          "type": "uint256[2][2]"
        },
        {
          "name": "c",
          "type": "uint256[2]"
        },
        {
          "name": "inputs",
          "type": "uint256[2]"
        }
      ],
      "name": "addSolution",
      "outputs": [],
      "payable": false,
      "stateMutability": "nonpayable",
      "type": "function"
    },
    {
      "constant": false,
      "inputs": [
        {
          "name": "to",
          "type": "address"
        },
        {
          "name": "tokenId",
          "type": "uint256"
        }
      ],
      "name": "mint",
      "outputs": [
        {
          "name": "",
          "type": "bool"
        }
      ],
      "payable": false,
      "stateMutability": "nonpayable",
      "type": "function"
    },
    {
      "constant": false,
      "inputs": [],
      "name": "getArrLength",
      "outputs": [
        {
          "name": "",
          "type": "uint8"
        }
      ],
      "payable": false,
      "stateMutability": "nonpayable",
      "type": "function"
    }
  ],
  "bytecode": "0x60806040523480156200001157600080fd5b50604051620049c0380380620049c0833981018060405260408110156200003757600080fd5b8101908080516401000000008111156200005057600080fd5b828101905060208101848111156200006757600080fd5b81518560018202830111640100000000821117156200008557600080fd5b50509291906020018051640100000000811115620000a257600080fd5b82810190506020810184811115620000b957600080fd5b8151856001820283011164010000000082111715620000d757600080fd5b5050929190505050818181816040518060600160405280603f815260200162004981603f9139336000806101000a81548173ffffffffffffffffffffffffffffffffffffffff021916908373ffffffffffffffffffffffffffffffffffffffff1602179055506000809054906101000a900473ffffffffffffffffffffffffffffffffffffffff1673ffffffffffffffffffffffffffffffffffffffff16600073ffffffffffffffffffffffffffffffffffffffff167f5c486528ec3e3f0ea91181cff8116f02bfa350e03b8b6f12e00765adbb5af85c60405160405180910390a360008060146101000a81548160ff021916908315150217905550620001eb6301ffc9a760e01b6200028b60201b60201c565b620002036380ac58cd60e01b6200028b60201b60201c565b6200021b63780e9d6360e01b6200028b60201b60201c565b82600f9080519060200190620002339291906200032b565b5081601090805190602001906200024c9291906200032b565b508060119080519060200190620002659291906200032b565b506200027e635b5e139f60e01b6200028b60201b60201c565b50505050505050620003da565b63ffffffff60e01b817bffffffffffffffffffffffffffffffffffffffffffffffffffffffff19161415620002bf57600080fd5b6001806000837bffffffffffffffffffffffffffffffffffffffffffffffffffffffff19167bffffffffffffffffffffffffffffffffffffffffffffffffffffffff1916815260200190815260200160002060006101000a81548160ff02191690831515021790555050565b828054600181600116156101000203166002900490600052602060002090601f016020900481019282601f106200036e57805160ff19168380011785556200039f565b828001600101855582156200039f579182015b828111156200039e57825182559160200191906001019062000381565b5b509050620003ae9190620003b2565b5090565b620003d791905b80821115620003d3576000816000905550600101620003b9565b5090565b90565b61459780620003ea6000396000f3fe608060405234801561001057600080fd5b50600436106101725760003560e01c80634e41a1fb116100de578063893d20e811610097578063c87b56dd11610071578063c87b56dd14610c17578063e985e9c514610cbe578063f2fde38b14610d3a578063f76b443114610d7e57610172565b8063893d20e814610a78578063a22cb46514610ac2578063b88d4fde14610b1257610172565b80634e41a1fb146107465780634f6ccce7146107ed578063621e9ec01461082f5780636352211e146109a85780636985a02214610a1657806370a0823114610a2057610172565b806327dc297e1161013057806327dc297e146103cb57806327e9b1a0146104905780632f745c59146104b457806338bbfa501461051657806340c10f191461067257806342842e0e146106d857610172565b8062ad800c1461017757806301ffc9a71461021e578063081812fc14610283578063095ea7b3146102f157806318160ddd1461033f57806323b872dd1461035d575b600080fd5b6101a36004803603602081101561018d57600080fd5b8101908080359060200190929190505050610edf565b6040518080602001828103825283818151815260200191508051906020019080838360005b838110156101e35780820151818401526020810190506101c8565b50505050905090810190601f1680156102105780820380516001836020036101000a031916815260200191505b509250505060405180910390f35b6102696004803603602081101561023457600080fd5b8101908080357bffffffffffffffffffffffffffffffffffffffffffffffffffffffff19169060200190929190505050610ffe565b604051808215151515815260200191505060405180910390f35b6102af6004803603602081101561029957600080fd5b8101908080359060200190929190505050611066565b604051808273ffffffffffffffffffffffffffffffffffffffff1673ffffffffffffffffffffffffffffffffffffffff16815260200191505060405180910390f35b61033d6004803603604081101561030757600080fd5b81019080803573ffffffffffffffffffffffffffffffffffffffff169060200190929190803590602001909291905050506110b7565b005b610347611284565b6040518082815260200191505060405180910390f35b6103c96004803603606081101561037357600080fd5b81019080803573ffffffffffffffffffffffffffffffffffffffff169060200190929190803573ffffffffffffffffffffffffffffffffffffffff16906020019092919080359060200190929190505050611291565b005b61048e600480360360408110156103e157600080fd5b81019080803590602001909291908035906020019064010000000081111561040857600080fd5b82018360208201111561041a57600080fd5b8035906020019184600183028401116401000000008311171561043c57600080fd5b91908080601f016020809104026020016040519081016040528093929190818152602001838380828437600081840152601f19601f820116905080830192505050505050509192919290505050611300565b005b610498611343565b604051808260ff1660ff16815260200191505060405180910390f35b610500600480360360408110156104ca57600080fd5b81019080803573ffffffffffffffffffffffffffffffffffffffff16906020019092919080359060200190929190505050611355565b6040518082815260200191505060405180910390f35b6106706004803603606081101561052c57600080fd5b81019080803590602001909291908035906020019064010000000081111561055357600080fd5b82018360208201111561056557600080fd5b8035906020019184600183028401116401000000008311171561058757600080fd5b91908080601f016020809104026020016040519081016040528093929190818152602001838380828437600081840152601f19601f820116905080830192505050505050509192919290803590602001906401000000008111156105ea57600080fd5b8201836020820111156105fc57600080fd5b8035906020019184600183028401116401000000008311171561061e57600080fd5b91908080601f016020809104026020016040519081016040528093929190818152602001838380828437600081840152601f19601f8201169050808301925050505050505091929192905050506113c8565b005b6106be6004803603604081101561068857600080fd5b81019080803573ffffffffffffffffffffffffffffffffffffffff169060200190929190803590602001909291905050506113cd565b604051808215151515815260200191505060405180910390f35b610744600480360360608110156106ee57600080fd5b81019080803573ffffffffffffffffffffffffffffffffffffffff169060200190929190803573ffffffffffffffffffffffffffffffffffffffff1690602001909291908035906020019092919050505061158f565b005b6107726004803603602081101561075c57600080fd5b81019080803590602001909291905050506115af565b6040518080602001828103825283818151815260200191508051906020019080838360005b838110156107b2578082015181840152602081019050610797565b50505050905090810190601f1680156107df5780820380516001836020036101000a031916815260200191505b509250505060405180910390f35b6108196004803603602081101561080357600080fd5b81019080803590602001909291905050506116ce565b6040518082815260200191505060405180910390f35b61098e600480360361014081101561084657600080fd5b8101908080604001906002806020026040519081016040528092919082600260200280828437600081840152601f19601f82011690508083019250505050505091929192908060800190600280602002604051908101604052809291906000905b828210156108fb578382604002016002806020026040519081016040528092919082600260200280828437600081840152601f19601f820116905080830192505050505050815260200190600101906108a7565b50505050919291929080604001906002806020026040519081016040528092919082600260200280828437600081840152601f19601f820116905080830192505050505050919291929080604001906002806020026040519081016040528092919082600260200280828437600081840152601f19601f8201169050808301925050505050509192919290505050611702565b604051808215151515815260200191505060405180910390f35b6109d4600480360360208110156109be57600080fd5b8101908080359060200190929190505050611949565b604051808273ffffffffffffffffffffffffffffffffffffffff1673ffffffffffffffffffffffffffffffffffffffff16815260200191505060405180910390f35b610a1e611986565b005b610a6260048036036020811015610a3657600080fd5b81019080803573ffffffffffffffffffffffffffffffffffffffff169060200190929190505050611a65565b6040518082815260200191505060405180910390f35b610a80611b57565b604051808273ffffffffffffffffffffffffffffffffffffffff1673ffffffffffffffffffffffffffffffffffffffff16815260200191505060405180910390f35b610b1060048036036040811015610ad857600080fd5b81019080803573ffffffffffffffffffffffffffffffffffffffff169060200190929190803515159060200190929190505050611b80565b005b610c1560048036036080811015610b2857600080fd5b81019080803573ffffffffffffffffffffffffffffffffffffffff169060200190929190803573ffffffffffffffffffffffffffffffffffffffff1690602001909291908035906020019092919080359060200190640100000000811115610b8f57600080fd5b820183602082011115610ba157600080fd5b80359060200191846001830284011164010000000083111715610bc357600080fd5b91908080601f016020809104026020016040519081016040528093929190818152602001838380828437600081840152601f19601f820116905080830192505050505050509192919290505050611d06565b005b610c4360048036036020811015610c2d57600080fd5b8101908080359060200190929190505050611d2c565b6040518080602001828103825283818151815260200191508051906020019080838360005b83811015610c83578082015181840152602081019050610c68565b50505050905090810190601f168015610cb05780820380516001836020036101000a031916815260200191505b509250505060405180910390f35b610d2060048036036040811015610cd457600080fd5b81019080803573ffffffffffffffffffffffffffffffffffffffff169060200190929190803573ffffffffffffffffffffffffffffffffffffffff169060200190929190505050611e5c565b604051808215151515815260200191505060405180910390f35b610d7c60048036036020811015610d5057600080fd5b81019080803573ffffffffffffffffffffffffffffffffffffffff169060200190929190505050611ef0565b005b610edd6004803603610140811015610d9557600080fd5b8101908080604001906002806020026040519081016040528092919082600260200280828437600081840152601f19601f82011690508083019250505050505091929192908060800190600280602002604051908101604052809291906000905b82821015610e4a578382604002016002806020026040519081016040528092919082600260200280828437600081840152601f19601f82011690508083019250505050505081526020019060010190610df6565b50505050919291929080604001906002806020026040519081016040528092919082600260200280828437600081840152601f19601f820116905080830192505050505050919291929080604001906002806020026040519081016040528092919082600260200280828437600081840152601f19601f8201169050808301925050505050509192919290505050612113565b005b6060610eea826124a4565b610f5c576040517f08c379a000000000000000000000000000000000000000000000000000000000815260040180806020018281038252601b8152602001807f7468617420746f6b656e496420646f6573206e6f74206578697374000000000081525060200191505060405180910390fd5b600f8054600181600116156101000203166002900480601f016020809104026020016040519081016040528092919081815260200182805460018160011615610100020316600290048015610ff25780601f10610fc757610100808354040283529160200191610ff2565b820191906000526020600020905b815481529060010190602001808311610fd557829003601f168201915b50505050509050919050565b600060016000837bffffffffffffffffffffffffffffffffffffffffffffffffffffffff19167bffffffffffffffffffffffffffffffffffffffffffffffffffffffff1916815260200190815260200160002060009054906101000a900460ff169050919050565b6000611071826124a4565b156110b1576003600083815260200190815260200160002060009054906101000a900473ffffffffffffffffffffffffffffffffffffffff1690506110b2565b5b919050565b60006110c282611949565b90508073ffffffffffffffffffffffffffffffffffffffff168373ffffffffffffffffffffffffffffffffffffffff161415611166576040517f08c379a00000000000000000000000000000000000000000000000000000000081526004018080602001828103825260188152602001807f63616e6e6f74207472616e7366657220746f206f776e6572000000000000000081525060200191505060405180910390fd5b60006111728284612516565b905060011515811515146111d1576040517f08c379a00000000000000000000000000000000000000000000000000000000081526004018080602001828103825260218152602001806144e76021913960400191505060405180910390fd5b836003600085815260200190815260200160002060006101000a81548173ffffffffffffffffffffffffffffffffffffffff021916908373ffffffffffffffffffffffffffffffffffffffff160217905550828473ffffffffffffffffffffffffffffffffffffffff168373ffffffffffffffffffffffffffffffffffffffff167f8c5be1e5ebec7d5bd14f71427d1e84f3dd0314c0f7b2291e5b200ac8c7c3b92560405160405180910390a450505050565b6000600880549050905090565b61129b3382612516565b6112f0576040517f08c379a000000000000000000000000000000000000000000000000000000000815260040180806020018281038252602181526020018061452a6021913960400191505060405180910390fd5b6112fb8383836125ab565b505050565b61133f828260006040519080825280601f01601f1916602001820160405280156113395781602001600182028038833980820191505090505b506113c8565b5050565b60008060138054905090508091505090565b600061136083611a65565b821061136b57600080fd5b600660008473ffffffffffffffffffffffffffffffffffffffff1673ffffffffffffffffffffffffffffffffffffffff16815260200190815260200160002082815481106113b557fe5b9060005260206000200154905092915050565b505050565b60006113d761427b565b601460008573ffffffffffffffffffffffffffffffffffffffff1673ffffffffffffffffffffffffffffffffffffffff168152602001908152602001600020604051806060016040529081600082015481526020016001820160009054906101000a900473ffffffffffffffffffffffffffffffffffffffff1673ffffffffffffffffffffffffffffffffffffffff1673ffffffffffffffffffffffffffffffffffffffff1681526020016001820160149054906101000a900460ff1615151515815250509050806040015115611516576040517f08c379a000000000000000000000000000000000000000000000000000000000815260040180806020018281038252601c8152602001807f7468697320736f6c7574696f6e2069732075736564206265666f72650000000081525060200191505060405180910390fd5b61152084846125cf565b6001601460008673ffffffffffffffffffffffffffffffffffffffff1673ffffffffffffffffffffffffffffffffffffffff16815260200190815260200160002060010160146101000a81548160ff021916908315150217905550611584836125f0565b600191505092915050565b6115aa83838360405180602001604052806000815250611d06565b505050565b60606115ba826124a4565b61162c576040517f08c379a000000000000000000000000000000000000000000000000000000000815260040180806020018281038252601b8152602001807f7468617420746f6b656e496420646f6573206e6f74206578697374000000000081525060200191505060405180910390fd5b60108054600181600116156101000203166002900480601f0160208091040260200160405190810160405280929190818152602001828054600181600116156101000203166002900480156116c25780601f10611697576101008083540402835291602001916116c2565b820191906000526020600020905b8154815290600101906020018083116116a557829003601f168201915b50505050509050919050565b60006116d8611284565b82106116e357600080fd5b600882815481106116f057fe5b90600052602060002001549050919050565b600061170c6142b7565b60405180604001604052808760006002811061172457fe5b602002015181526020018760016002811061173b57fe5b60200201518152508160000181905250604051806040016040528060405180604001604052808860006002811061176e57fe5b602002015160006002811061177f57fe5b602002015181526020018860006002811061179657fe5b60200201516001600281106117a757fe5b602002015181525081526020016040518060400160405280886001600281106117cc57fe5b60200201516000600281106117dd57fe5b60200201518152602001886001600281106117f457fe5b602002015160016002811061180557fe5b6020020151815250815250816020018190525060405180604001604052808560006002811061183057fe5b602002015181526020018560016002811061184757fe5b60200201518152508160400181905250606060026040519080825280602002602001820160405280156118895781602001602082028038833980820191505090505b50905060008090505b60028110156118d1578481600281106118a757fe5b60200201518282815181106118b857fe5b6020026020010181815250508080600101915050611892565b5060006118de8284612741565b141561193a577f3f3cfdb26fb5f9f1786ab4f1a1f9cd4c0b5e726cbdfc26e495261731aad44e396040518080602001828103825260228152602001806145086022913960400191505060405180910390a1600192505050611941565b6000925050505b949350505050565b60006002600083815260200190815260200160002060009054906101000a900473ffffffffffffffffffffffffffffffffffffffff169050919050565b6000809054906101000a900473ffffffffffffffffffffffffffffffffffffffff1673ffffffffffffffffffffffffffffffffffffffff163373ffffffffffffffffffffffffffffffffffffffff1614611a48576040517f08c379a000000000000000000000000000000000000000000000000000000000815260040180806020018281038252601a8152602001807f6f6e6c7920746865206f776e65722063616e206578656375746500000000000081525060200191505060405180910390fd5b6001600060146101000a81548160ff021916908315150217905550565b60008073ffffffffffffffffffffffffffffffffffffffff168273ffffffffffffffffffffffffffffffffffffffff161415611b09576040517f08c379a00000000000000000000000000000000000000000000000000000000081526004018080602001828103825260138152602001807f7468652061646472657373206973206e756c6c0000000000000000000000000081525060200191505060405180910390fd5b611b50600460008473ffffffffffffffffffffffffffffffffffffffff1673ffffffffffffffffffffffffffffffffffffffff1681526020019081526020016000206128b3565b9050919050565b60008060009054906101000a900473ffffffffffffffffffffffffffffffffffffffff16905090565b3373ffffffffffffffffffffffffffffffffffffffff168273ffffffffffffffffffffffffffffffffffffffff161415611c05576040517f08c379a000000000000000000000000000000000000000000000000000000000815260040180806020018281038252602181526020018061454b6021913960400191505060405180910390fd5b80600560003373ffffffffffffffffffffffffffffffffffffffff1673ffffffffffffffffffffffffffffffffffffffff16815260200190815260200160002060008473ffffffffffffffffffffffffffffffffffffffff1673ffffffffffffffffffffffffffffffffffffffff16815260200190815260200160002060006101000a81548160ff0219169083151502179055508173ffffffffffffffffffffffffffffffffffffffff163373ffffffffffffffffffffffffffffffffffffffff167f17307eab39ab6107e8899845ad3d59bd9653f200f220920489ca2b5937696c3183604051808215151515815260200191505060405180910390a35050565b611d11848484611291565b611d1d848484846128c1565b611d2657600080fd5b50505050565b6060611d37826124a4565b611da9576040517f08c379a000000000000000000000000000000000000000000000000000000000815260040180806020018281038252601b8152602001807f7468617420746f6b656e496420646f6573206e6f74206578697374000000000081525060200191505060405180910390fd5b601260008381526020019081526020016000208054600181600116156101000203166002900480601f016020809104026020016040519081016040528092919081815260200182805460018160011615610100020316600290048015611e505780601f10611e2557610100808354040283529160200191611e50565b820191906000526020600020905b815481529060010190602001808311611e3357829003601f168201915b50505050509050919050565b6000600560008473ffffffffffffffffffffffffffffffffffffffff1673ffffffffffffffffffffffffffffffffffffffff16815260200190815260200160002060008373ffffffffffffffffffffffffffffffffffffffff1673ffffffffffffffffffffffffffffffffffffffff16815260200190815260200160002060009054906101000a900460ff16905092915050565b6000809054906101000a900473ffffffffffffffffffffffffffffffffffffffff1673ffffffffffffffffffffffffffffffffffffffff163373ffffffffffffffffffffffffffffffffffffffff1614611fb2576040517f08c379a000000000000000000000000000000000000000000000000000000000815260040180806020018281038252601a8152602001807f6f6e6c7920746865206f776e65722063616e206578656375746500000000000081525060200191505060405180910390fd5b600073ffffffffffffffffffffffffffffffffffffffff168173ffffffffffffffffffffffffffffffffffffffff161415612055576040517f08c379a00000000000000000000000000000000000000000000000000000000081526004018080602001828103825260138152602001807f7468652061646472657373206973206e756c6c0000000000000000000000000081525060200191505060405180910390fd5b806000806101000a81548173ffffffffffffffffffffffffffffffffffffffff021916908373ffffffffffffffffffffffffffffffffffffffff1602179055508073ffffffffffffffffffffffffffffffffffffffff166000809054906101000a900473ffffffffffffffffffffffffffffffffffffffff1673ffffffffffffffffffffffffffffffffffffffff167f5c486528ec3e3f0ea91181cff8116f02bfa350e03b8b6f12e00765adbb5af85c60405160405180910390a350565b600061212185858585611702565b905080612196576040517f08c379a00000000000000000000000000000000000000000000000000000000081526004018080602001828103825260198152602001807f54686520736f6c7574696f6e206973206e6f742076616c69640000000000000081525060200191505060405180910390fd5b6000858585856040516020018085600260200280838360005b838110156121ca5780820151818401526020810190506121af565b505050509050018460026000925b8184101561221e5782846020020151600260200280838360005b8381101561220d5780820151818401526020810190506121f2565b5050505090500192600101926121d8565b9250505083600260200280838360005b8381101561224957808201518184015260208101905061222e565b5050505090500182600260200280838360005b8381101561227757808201518184015260208101905061225c565b505050509050019450505050506040516020818303038152906040528051906020012090506122a461427b565b60405180606001604052808381526020013373ffffffffffffffffffffffffffffffffffffffff16815260200160001515815250905080601460003373ffffffffffffffffffffffffffffffffffffffff1673ffffffffffffffffffffffffffffffffffffffff1681526020019081526020016000206000820151816000015560208201518160010160006101000a81548173ffffffffffffffffffffffffffffffffffffffff021916908373ffffffffffffffffffffffffffffffffffffffff16021790555060408201518160010160146101000a81548160ff021916908315150217905550905050601381908060018154018082558091505090600182039060005260206000209060020201600090919290919091506000820151816000015560208201518160010160006101000a81548173ffffffffffffffffffffffffffffffffffffffff021916908373ffffffffffffffffffffffffffffffffffffffff16021790555060408201518160010160146101000a81548160ff0219169083151502179055505050507f01d5f9f5a890e5385b4f1d07d3c8c1f739f82bb433ed461d4551b7af3edc63408233604051808381526020018273ffffffffffffffffffffffffffffffffffffffff1673ffffffffffffffffffffffffffffffffffffffff1681526020019250505060405180910390a150505050505050565b6000806002600084815260200190815260200160002060009054906101000a900473ffffffffffffffffffffffffffffffffffffffff169050600073ffffffffffffffffffffffffffffffffffffffff168173ffffffffffffffffffffffffffffffffffffffff161415915050919050565b60008061252283611949565b90508073ffffffffffffffffffffffffffffffffffffffff168473ffffffffffffffffffffffffffffffffffffffff16148061259157508373ffffffffffffffffffffffffffffffffffffffff1661257984611066565b73ffffffffffffffffffffffffffffffffffffffff16145b806125a257506125a18185611e5c565b5b91505092915050565b6125b6838383612aaa565b6125c08382612d3f565b6125ca8282612edd565b505050565b6125d98282612fa4565b6125e38282612edd565b6125ec816131c8565b5050565b6125f9816124a4565b61266b576040517f08c379a000000000000000000000000000000000000000000000000000000000815260040180806020018281038252601b8152602001807f7468617420746f6b656e496420646f6573206e6f74206578697374000000000081525060200191505060405180910390fd5b61271760118054600181600116156101000203166002900480601f0160208091040260200160405190810160405280929190818152602001828054600181600116156101000203166002900480156127045780601f106126d957610100808354040283529160200191612704565b820191906000526020600020905b8154815290600101906020018083116126e757829003601f168201915b505050505061271283613214565b613341565b60126000838152602001908152602001600020908051906020019061273d9291906142eb565b5050565b6000807f30644e72e131a029b85045b68181585d2833e84879b9709143e1f593f0000001905061276f61436b565b612777613385565b905080608001515160018651011461278e57600080fd5b6127966143b3565b6040518060400160405280600081526020016000815250905060008090505b865181101561282c57838782815181106127cb57fe5b6020026020010151106127dd57600080fd5b61281d82612818856080015160018501815181106127f757fe5b60200260200101518a858151811061280b57fe5b60200260200101516137d3565b613867565b915080806001019150506127b5565b5061284f81836080015160008151811061284257fe5b6020026020010151613867565b9050612895856000015186602001516128678461391a565b85604001516128798a6040015161391a565b876060015161288b896000015161391a565b89602001516139b4565b6128a557600193505050506128ad565b600093505050505b92915050565b600081600001549050919050565b60006128e28473ffffffffffffffffffffffffffffffffffffffff16613b18565b6128ef5760019050612aa2565b60008473ffffffffffffffffffffffffffffffffffffffff1663150b7a02338887876040518563ffffffff1660e01b8152600401808573ffffffffffffffffffffffffffffffffffffffff1673ffffffffffffffffffffffffffffffffffffffff1681526020018473ffffffffffffffffffffffffffffffffffffffff1673ffffffffffffffffffffffffffffffffffffffff16815260200183815260200180602001828103825283818151815260200191508051906020019080838360005b838110156129ca5780820151818401526020810190506129af565b50505050905090810190601f1680156129f75780820380516001836020036101000a031916815260200191505b5095505050505050602060405180830381600087803b158015612a1957600080fd5b505af1158015612a2d573d6000803e3d6000fd5b505050506040513d6020811015612a4357600080fd5b8101908080519060200190929190505050905063150b7a0260e01b7bffffffffffffffffffffffffffffffffffffffffffffffffffffffff1916817bffffffffffffffffffffffffffffffffffffffffffffffffffffffff1916149150505b949350505050565b612ab381611949565b73ffffffffffffffffffffffffffffffffffffffff168373ffffffffffffffffffffffffffffffffffffffff1614612b53576040517f08c379a000000000000000000000000000000000000000000000000000000000815260040180806020018281038252601b8152602001807f6f6e6c7920746865206f776e65722063616e207472616e73666572000000000081525060200191505060405180910390fd5b600073ffffffffffffffffffffffffffffffffffffffff168273ffffffffffffffffffffffffffffffffffffffff161415612bf6576040517f08c379a000000000000000000000000000000000000000000000000000000000815260040180806020018281038252601f8152602001807f746f2061646472657373206973206e6f742076616c696420616464726573730081525060200191505060405180910390fd5b612bff81613b63565b816002600083815260200190815260200160002060006101000a81548173ffffffffffffffffffffffffffffffffffffffff021916908373ffffffffffffffffffffffffffffffffffffffff160217905550612c98600460008473ffffffffffffffffffffffffffffffffffffffff1673ffffffffffffffffffffffffffffffffffffffff168152602001908152602001600020613c21565b612cdf600460008573ffffffffffffffffffffffffffffffffffffffff1673ffffffffffffffffffffffffffffffffffffffff168152602001908152602001600020613c37565b808273ffffffffffffffffffffffffffffffffffffffff168473ffffffffffffffffffffffffffffffffffffffff167fddf252ad1be2c89b69c2b068fc378daa952ba7f163c4a11628f55a4df523b3ef60405160405180910390a4505050565b6000612d976001600660008673ffffffffffffffffffffffffffffffffffffffff1673ffffffffffffffffffffffffffffffffffffffff16815260200190815260200160002080549050613c5a90919063ffffffff16565b9050600060076000848152602001908152602001600020549050818114612e84576000600660008673ffffffffffffffffffffffffffffffffffffffff1673ffffffffffffffffffffffffffffffffffffffff1681526020019081526020016000208381548110612e0457fe5b9060005260206000200154905080600660008773ffffffffffffffffffffffffffffffffffffffff1673ffffffffffffffffffffffffffffffffffffffff1681526020019081526020016000208381548110612e5c57fe5b9060005260206000200181905550816007600083815260200190815260200160002081905550505b600660008573ffffffffffffffffffffffffffffffffffffffff1673ffffffffffffffffffffffffffffffffffffffff168152602001908152602001600020805480919060019003612ed691906143cd565b5050505050565b600660008373ffffffffffffffffffffffffffffffffffffffff1673ffffffffffffffffffffffffffffffffffffffff168152602001908152602001600020805490506007600083815260200190815260200160002081905550600660008373ffffffffffffffffffffffffffffffffffffffff1673ffffffffffffffffffffffffffffffffffffffff1681526020019081526020016000208190806001815401808255809150509060018203906000526020600020016000909192909190915055505050565b6000612faf826124a4565b9050600015158115151461302b576040517f08c379a000000000000000000000000000000000000000000000000000000000815260040180806020018281038252601b8152602001807f7468697320746f6b656e496420616c726561647920657869737473000000000081525060200191505060405180910390fd5b600073ffffffffffffffffffffffffffffffffffffffff168373ffffffffffffffffffffffffffffffffffffffff1614156130ce576040517f08c379a00000000000000000000000000000000000000000000000000000000081526004018080602001828103825260148152602001807f746869732061646472657373206973206e756c6c00000000000000000000000081525060200191505060405180910390fd5b826002600084815260200190815260200160002060006101000a81548173ffffffffffffffffffffffffffffffffffffffff021916908373ffffffffffffffffffffffffffffffffffffffff160217905550613167600460008573ffffffffffffffffffffffffffffffffffffffff1673ffffffffffffffffffffffffffffffffffffffff168152602001908152602001600020613c21565b818373ffffffffffffffffffffffffffffffffffffffff16600073ffffffffffffffffffffffffffffffffffffffff167fddf252ad1be2c89b69c2b068fc378daa952ba7f163c4a11628f55a4df523b3ef60405160405180910390a4505050565b6008805490506009600083815260200190815260200160002081905550600881908060018154018082558091505090600182039060005260206000200160009091929091909150555050565b6060600082141561325c576040518060400160405280600181526020017f3000000000000000000000000000000000000000000000000000000000000000815250905061333c565b600082905060005b60008214613286578080600101915050600a828161327e57fe5b049150613264565b6060816040519080825280601f01601f1916602001820160405280156132bb5781602001600182028038833980820191505090505b50905060006001830390505b6000861461333457600a86816132d957fe5b0660300160f81b828280600190039350815181106132f357fe5b60200101907effffffffffffffffffffffffffffffffffffffffffffffffffffffffffffff1916908160001a905350600a868161332c57fe5b0495506132c7565b819450505050505b919050565b606061337d8383604051806020016040528060008152506040518060200160405280600081525060405180602001604052806000815250613ca4565b905092915050565b61338d61436b565b60405180604001604052807f2865d215c807f3718f50df2a1148db10c18c3ea513b1c7afa41f44a4c1c5b98b81526020017f0beb6eccb9fa0789b31fb9460bf3cb9ec8ef54d5fecdcc1809c72d40b6351b948152508160000181905250604051806040016040528060405180604001604052807f0e4f7972b77b7f5d8f7b19b4ef536823ba3704b77bf6bd11a2a7ff4bf48dff2581526020017f2556a7080dc033d570d9798c7922168bb28b4776291c6307271ba203a363485d815250815260200160405180604001604052807f12e281304eac25398fd0bed775c0dc0d1e58e51d7841621e53ed06dda7b89bd481526020017f051d5322cbf5260bffc83b74d686736f82f0dde01f97068acd1888ef87c2fc138152508152508160200181905250604051806040016040528060405180604001604052807f12c3f0b44090d93844e0d7f722e7fc0f4613cdefaba8a0f15ebb768794f5e3d181526020017f1c82567a6d710da34ab2f164a52d0aa6fe7ac0ea5f8a8a0778279679a792945b815250815260200160405180604001604052807f13a5efb57324606baa4f15087e407c3c2ea8f477bcb75f15991aa8f33fcb68da81526020017f2b5b83ee5a5c1199b4ac7663a64597cf04867cf6172ada7c9c674e298cc899008152508152508160400181905250604051806040016040528060405180604001604052807f04360cc60323f961111b23eccdd65d0640c5106a73f54387c1cfa873fe94266581526020017f20ca23db2ee71bc0fed2cd9dd3523ffd930a7cec20fb41fed2e5463702614e4e815250815260200160405180604001604052807f2fc4cb9edb735a32097354eca648d5f630e0e95e07cec5df279a73181a29aa2c81526020017f21e59125ccfa02f9af5f84e2e0b572c53fbacc45a49ef1f953b7f3a81ac693d58152508152508160600181905250600360405190808252806020026020018201604052801561367457816020015b6136616143f9565b8152602001906001900390816136595790505b50816080018190525060405180604001604052807f28d8cc1b0b4e5699f6d6a168e6e2f2379b9b1b463b40b64c836590123bb814b281526020017f204dacc7c14c026528d4f0c947c3f3068d8f7d88816f6cd03e2c50900162c4df81525081608001516000815181106136e357fe5b602002602001018190525060405180604001604052807f12a430b9acb347a3dc594feacb1063fdd9c46f2ccc193190f5a96cb3c44233cb81526020017f182380bd603fd14711818d6ea901d7efafc1657e574164071a9104488a017821815250816080015160018151811061375457fe5b602002602001018190525060405180604001604052807f2b1b1694c229d39b5aa7f4d3bb4e022cf6e4a4cecf1fcdb5da3db4918dba725f81526020017f0ecb53dc6bf2196ec65759aac20bae428f8798df45a96872d667d6e6a5cd33d081525081608001516002815181106137c557fe5b602002602001018190525090565b6137db6143b3565b6137e3614413565b8360000151816000600381106137f557fe5b60200201818152505083602001518160016003811061381057fe5b602002018181525050828160026003811061382757fe5b6020020181815250506000606083608084600060076107d05a03f19050806000811461385257613854565bfe5b508061385f57600080fd5b505092915050565b61386f6143b3565b613877614435565b83600001518160006004811061388957fe5b6020020181815250508360200151816001600481106138a457fe5b6020020181815250508260000151816002600481106138bf57fe5b6020020181815250508260200151816003600481106138da57fe5b602002018181525050600060608360c084600060066107d05a03f19050806000811461390557613907565bfe5b508061391257600080fd5b505092915050565b6139226143b3565b60007f30644e72e131a029b85045b68181585d97816a916871ca8d3c208c16d87cfd4790506000836000015114801561395f575060008360200151145b156139835760405180604001604052806000815260200160008152509150506139af565b604051806040016040528084600001518152602001828560200151816139a557fe5b0683038152509150505b919050565b6000606060046040519080825280602002602001820160405280156139f357816020015b6139e06143f9565b8152602001906001900390816139d85790505b50905060606004604051908082528060200260200182016040528015613a3357816020015b613a20614457565b815260200190600190039081613a185790505b5090508a82600081518110613a4457fe5b60200260200101819052508882600181518110613a5d57fe5b60200260200101819052508682600281518110613a7657fe5b60200260200101819052508482600381518110613a8f57fe5b60200260200101819052508981600081518110613aa857fe5b60200260200101819052508781600181518110613ac157fe5b60200260200101819052508581600281518110613ada57fe5b60200260200101819052508381600381518110613af357fe5b6020026020010181905250613b088282613f66565b9250505098975050505050505050565b60008060007fc5d2460186f7233c927e7db2dcc703c0e500b653ca82273b7bfad8045d85a47060001b9050833f91506000801b8214158015613b5a5750808214155b92505050919050565b600073ffffffffffffffffffffffffffffffffffffffff166003600083815260200190815260200160002060009054906101000a900473ffffffffffffffffffffffffffffffffffffffff1673ffffffffffffffffffffffffffffffffffffffff1614613c1e5760006003600083815260200190815260200160002060006101000a81548173ffffffffffffffffffffffffffffffffffffffff021916908373ffffffffffffffffffffffffffffffffffffffff1602179055505b50565b6001816000016000828254019250508190555050565b613c4f60018260000154613c5a90919063ffffffff16565b816000018190555050565b6000613c9c83836040518060400160405280601e81526020017f536166654d6174683a207375627472616374696f6e206f766572666c6f7700008152506141bb565b905092915050565b6060808690506060869050606086905060608690506060869050606081518351855187518951010101016040519080825280601f01601f191660200182016040528015613d005781602001600182028038833980820191505090505b509050606081905060008090506000809050600090505b8851811015613d8557888181518110613d2c57fe5b602001015160f81c60f81b838380600101945081518110613d4957fe5b60200101907effffffffffffffffffffffffffffffffffffffffffffffffffffffffffffff1916908160001a9053508080600101915050613d17565b600090505b8751811015613df857878181518110613d9f57fe5b602001015160f81c60f81b838380600101945081518110613dbc57fe5b60200101907effffffffffffffffffffffffffffffffffffffffffffffffffffffffffffff1916908160001a9053508080600101915050613d8a565b600090505b8651811015613e6b57868181518110613e1257fe5b602001015160f81c60f81b838380600101945081518110613e2f57fe5b60200101907effffffffffffffffffffffffffffffffffffffffffffffffffffffffffffff1916908160001a9053508080600101915050613dfd565b600090505b8551811015613ede57858181518110613e8557fe5b602001015160f81c60f81b838380600101945081518110613ea257fe5b60200101907effffffffffffffffffffffffffffffffffffffffffffffffffffffffffffff1916908160001a9053508080600101915050613e70565b600090505b8451811015613f5157848181518110613ef857fe5b602001015160f81c60f81b838380600101945081518110613f1557fe5b60200101907effffffffffffffffffffffffffffffffffffffffffffffffffffffffffffff1916908160001a9053508080600101915050613ee3565b82995050505050505050505095945050505050565b60008151835114613f7657600080fd5b6000835190506000600682029050606081604051908082528060200260200182016040528015613fb55781602001602082028038833980820191505090505b50905060008090505b8381101561415b57868181518110613fd257fe5b602002602001015160000151826000600684020181518110613ff057fe5b60200260200101818152505086818151811061400857fe5b60200260200101516020015182600160068402018151811061402657fe5b60200260200101818152505085818151811061403e57fe5b60200260200101516000015160006002811061405657fe5b602002015182600260068402018151811061406d57fe5b60200260200101818152505085818151811061408557fe5b60200260200101516000015160016002811061409d57fe5b60200201518260036006840201815181106140b457fe5b6020026020010181815250508581815181106140cc57fe5b6020026020010151602001516000600281106140e457fe5b60200201518260046006840201815181106140fb57fe5b60200260200101818152505085818151811061411357fe5b60200260200101516020015160016002811061412b57fe5b602002015182600560068402018151811061414257fe5b6020026020010181815250508080600101915050613fbe565b5061416461447d565b60006020826020860260208601600060086107d05a03f19050806000811461418b5761418d565bfe5b508061419857600080fd5b6000826000600181106141a757fe5b602002015114159550505050505092915050565b6000838311158290614268576040517f08c379a00000000000000000000000000000000000000000000000000000000081526004018080602001828103825283818151815260200191508051906020019080838360005b8381101561422d578082015181840152602081019050614212565b50505050905090810190601f16801561425a5780820380516001836020036101000a031916815260200191505b509250505060405180910390fd5b5060008385039050809150509392505050565b604051806060016040528060008019168152602001600073ffffffffffffffffffffffffffffffffffffffff1681526020016000151581525090565b6040518061010001604052806142cb6143f9565b81526020016142d8614457565b81526020016142e56143f9565b81525090565b828054600181600116156101000203166002900490600052602060002090601f016020900481019282601f1061432c57805160ff191683800117855561435a565b8280016001018555821561435a579182015b8281111561435957825182559160200191906001019061433e565b5b509050614367919061449f565b5090565b604051806101e0016040528061437f6143f9565b815260200161438c614457565b8152602001614399614457565b81526020016143a6614457565b8152602001606081525090565b604051806040016040528060008152602001600081525090565b8154818355818111156143f4578183600052602060002091820191016143f3919061449f565b5b505050565b604051806040016040528060008152602001600081525090565b6040518060600160405280600390602082028038833980820191505090505090565b6040518060800160405280600490602082028038833980820191505090505090565b604051806080016040528061446a6144c4565b81526020016144776144c4565b81525090565b6040518060200160405280600190602082028038833980820191505090505090565b6144c191905b808211156144bd5760008160009055506001016144a5565b5090565b90565b604051806040016040528060029060208202803883398082019150509050509056fe796f7520617265206e6f7420617574686f72697a656420746f20617070726f76655472616e73616374696f6e207375636365737366756c6c792076657269666965642e6f6e6c7920617070726f76656420706572736f6e2063616e207472616e7366657273656e6465722073686f756c64206e6f7420626520746865207265636569766572a165627a7a72305820d6bc4079fde8edc635e2d0b51baa4d8c9f1209b06fc5eb60905696133f09e1b3002968747470733a2f2f73332d75732d776573742d322e616d617a6f6e6177732e636f6d2f756461636974792d626c6f636b636861696e2f63617073746f6e652f",
  "source": "pragma solidity >=0.4.21 <0.6.0;\n\nimport './ERC721Mintable.sol';\nimport './verifier.sol';\n\n// TODO define a contract call to the zokrates generated solidity contract <Verifier> or <renamedVerifier>\n// TODO define another contract named SolnSquareVerifier that inherits from your ERC721Mintable class\n\ncontract SolnSquareVerifier is ERC721TokenComplete, Verifier {\n\n    // TODO define a solutions struct that can hold an index & an address\n    struct Solution {\n        bytes32 hashIndex;\n        address senderAddress;\n        bool isMinted;\n    }\n\n// TODO define an array of the above struct\n    Solution[] solutionsArr;\n\n// TODO define a mapping to store unique solutions submitted\n    mapping (address => Solution) solutions;\n\n// TODO Create an event to emit when a solution is added\n    event SolutionAdded(bytes32 index, address senderAddress);\n\n// TODO Create a function to add the solutions to the array and emit the event\n    function addSolution(uint[2] memory a, uint[2][2] memory b,\n                         uint[2] memory c, uint[2] memory inputs)\n                public\n    {\n        bool isValid = verifyTx(a,b,c,inputs);\n        require(isValid, 'The solution is not valid');\n\n        bytes32 solutionHash = keccak256(abi.encodePacked(a,b,c,inputs));\n\n        Solution memory solution = Solution({\n            hashIndex : solutionHash,\n            senderAddress : msg.sender,\n            isMinted : false\n        });\n\n        solutions[msg.sender] = solution;\n        solutionsArr.push(solution);\n        emit SolutionAdded (solutionHash, msg.sender);\n    }\n\n// TODO Create a function to mint new NFT only after the solution has been verified\n\n    function mint(address to, uint tokenId)\n        public\n        returns(bool)\n    {\n        //  - make sure the solution is unique (has not been used before)\n        Solution memory solution = solutions[to];\n        require(!solution.isMinted, 'this solution is used before');\n\n        _mint(to, tokenId);\n        solutions[to].isMinted = true;\n\n        //  - make surehandle metadata as well as tokenSuplly\n        _setTokenURI(tokenId);\n        return true;\n    }\n\n    constructor(string memory name, string memory symbol)\n    ERC721TokenComplete(name, symbol) public {}\n\n    function getArrLength() external returns(uint8){\n       \n        uint8 len = uint8(solutionsArr.length);\n        return len;\n    }\n\n}\n\n\n\n\n\n\n\n\n\n\n\n\n\n\n\n\n\n\n\n\n\n\n\n\n\n\n",
  "sourcePath": "C:/Users/livel/Dropbox/coding/udacity/blockchain/realEstate/Blockchain-Capstone/eth-contracts/contracts/SolnSquareVerifier.sol",
  "compiler": {
    "name": "solc",
    "version": "0.5.8+commit.23d335f2.Emscripten.clang"
  },
  "schemaVersion": "3.0.16",
  "updatedAt": "2019-11-04T05:42:36.386Z",
  "devdoc": {
    "methods": {
      "isApprovedForAll(address,address)": {
        "details": "Tells whether an operator is approved by a given owner",
        "params": {
          "operator": "operator address which you want to query the approval of",
          "owner": "owner address which you want to query the approval of"
        },
        "return": "bool whether the given operator is approved by the given owner"
      },
      "setApprovalForAll(address,bool)": {
        "details": "Sets or unsets the approval of a given operator An operator is allowed to transfer all tokens of the sender on their behalf",
        "params": {
          "approved": "representing the status of the approval to be set",
          "to": "operator address to set the approval"
        }
      },
      "supportsInterface(bytes4)": {
        "details": "implement supportsInterface(bytes4) using a lookup table"
      },
      "tokenByIndex(uint256)": {
        "details": "Gets the token ID at a given index of all the tokens in this contract Reverts if the index is greater or equal to the total number of tokens",
        "params": {
          "index": "uint256 representing the index to be accessed of the tokens list"
        },
        "return": "uint256 token ID at the given index of the tokens list"
      },
      "tokenOfOwnerByIndex(address,uint256)": {
        "details": "Gets the token ID at a given index of the tokens list of the requested owner",
        "params": {
          "index": "uint256 representing the index to be accessed of the requested tokens list",
          "owner": "address owning the tokens list to be accessed"
        },
        "return": "uint256 token ID at the given index of the tokens list owned by the requested address"
      },
      "totalSupply()": {
        "details": "Gets the total amount of tokens stored by the contract",
        "return": "uint256 representing the total amount of tokens"
      }
    }
  },
  "userdoc": {
    "methods": {}
  }
}