{
  "contractName": "SolnSquareVerifier",
  "abi": [
    {
      "constant": true,
      "inputs": [
        {
          "name": "tokenId",
          "type": "uint256"
        }
      ],
      "name": "name",
      "outputs": [
        {
          "name": "",
          "type": "string"
        }
      ],
      "payable": false,
      "stateMutability": "view",
      "type": "function"
    },
    {
      "constant": true,
      "inputs": [
        {
          "name": "interfaceId",
          "type": "bytes4"
        }
      ],
      "name": "supportsInterface",
      "outputs": [
        {
          "name": "",
          "type": "bool"
        }
      ],
      "payable": false,
      "stateMutability": "view",
      "type": "function"
    },
    {
      "constant": true,
      "inputs": [
        {
          "name": "tokenId",
          "type": "uint256"
        }
      ],
      "name": "getApproved",
      "outputs": [
        {
          "name": "",
          "type": "address"
        }
      ],
      "payable": false,
      "stateMutability": "view",
      "type": "function"
    },
    {
      "constant": false,
      "inputs": [
        {
          "name": "to",
          "type": "address"
        },
        {
          "name": "tokenId",
          "type": "uint256"
        }
      ],
      "name": "approve",
      "outputs": [],
      "payable": false,
      "stateMutability": "nonpayable",
      "type": "function"
    },
    {
      "constant": true,
      "inputs": [],
      "name": "totalSupply",
      "outputs": [
        {
          "name": "",
          "type": "uint256"
        }
      ],
      "payable": false,
      "stateMutability": "view",
      "type": "function"
    },
    {
      "constant": false,
      "inputs": [
        {
          "name": "from",
          "type": "address"
        },
        {
          "name": "to",
          "type": "address"
        },
        {
          "name": "tokenId",
          "type": "uint256"
        }
      ],
      "name": "transferFrom",
      "outputs": [],
      "payable": false,
      "stateMutability": "nonpayable",
      "type": "function"
    },
    {
      "constant": false,
      "inputs": [
        {
          "name": "_myid",
          "type": "bytes32"
        },
        {
          "name": "_result",
          "type": "string"
        }
      ],
      "name": "__callback",
      "outputs": [],
      "payable": false,
      "stateMutability": "nonpayable",
      "type": "function"
    },
    {
      "constant": true,
      "inputs": [
        {
          "name": "owner",
          "type": "address"
        },
        {
          "name": "index",
          "type": "uint256"
        }
      ],
      "name": "tokenOfOwnerByIndex",
      "outputs": [
        {
          "name": "",
          "type": "uint256"
        }
      ],
      "payable": false,
      "stateMutability": "view",
      "type": "function"
    },
    {
      "constant": false,
      "inputs": [
        {
          "name": "_myid",
          "type": "bytes32"
        },
        {
          "name": "_result",
          "type": "string"
        },
        {
          "name": "_proof",
          "type": "bytes"
        }
      ],
      "name": "__callback",
      "outputs": [],
      "payable": false,
      "stateMutability": "nonpayable",
      "type": "function"
    },
    {
      "constant": false,
      "inputs": [
        {
          "name": "from",
          "type": "address"
        },
        {
          "name": "to",
          "type": "address"
        },
        {
          "name": "tokenId",
          "type": "uint256"
        }
      ],
      "name": "safeTransferFrom",
      "outputs": [],
      "payable": false,
      "stateMutability": "nonpayable",
      "type": "function"
    },
    {
      "constant": true,
      "inputs": [
        {
          "name": "tokenId",
          "type": "uint256"
        }
      ],
      "name": "symbol",
      "outputs": [
        {
          "name": "",
          "type": "string"
        }
      ],
      "payable": false,
      "stateMutability": "view",
      "type": "function"
    },
    {
      "constant": true,
      "inputs": [
        {
          "name": "index",
          "type": "uint256"
        }
      ],
      "name": "tokenByIndex",
      "outputs": [
        {
          "name": "",
          "type": "uint256"
        }
      ],
      "payable": false,
      "stateMutability": "view",
      "type": "function"
    },
    {
      "constant": false,
      "inputs": [
        {
          "name": "a",
          "type": "uint256[2]"
        },
        {
          "name": "b",
          "type": "uint256[2][2]"
        },
        {
          "name": "c",
          "type": "uint256[2]"
        },
        {
          "name": "input",
          "type": "uint256[2]"
        }
      ],
      "name": "verifyTx",
      "outputs": [
        {
          "name": "r",
          "type": "bool"
        }
      ],
      "payable": false,
      "stateMutability": "nonpayable",
      "type": "function"
    },
    {
      "constant": true,
      "inputs": [
        {
          "name": "tokenId",
          "type": "uint256"
        }
      ],
      "name": "ownerOf",
      "outputs": [
        {
          "name": "",
          "type": "address"
        }
      ],
      "payable": false,
      "stateMutability": "view",
      "type": "function"
    },
    {
      "constant": false,
      "inputs": [],
      "name": "Pause",
      "outputs": [],
      "payable": false,
      "stateMutability": "nonpayable",
      "type": "function"
    },
    {
      "constant": true,
      "inputs": [
        {
          "name": "owner",
          "type": "address"
        }
      ],
      "name": "balanceOf",
      "outputs": [
        {
          "name": "",
          "type": "uint256"
        }
      ],
      "payable": false,
      "stateMutability": "view",
      "type": "function"
    },
    {
      "constant": true,
      "inputs": [],
      "name": "getOwner",
      "outputs": [
        {
          "name": "",
          "type": "address"
        }
      ],
      "payable": false,
      "stateMutability": "view",
      "type": "function"
    },
    {
      "constant": false,
      "inputs": [
        {
          "name": "to",
          "type": "address"
        },
        {
          "name": "approved",
          "type": "bool"
        }
      ],
      "name": "setApprovalForAll",
      "outputs": [],
      "payable": false,
      "stateMutability": "nonpayable",
      "type": "function"
    },
    {
      "constant": false,
      "inputs": [
        {
          "name": "from",
          "type": "address"
        },
        {
          "name": "to",
          "type": "address"
        },
        {
          "name": "tokenId",
          "type": "uint256"
        },
        {
          "name": "_data",
          "type": "bytes"
        }
      ],
      "name": "safeTransferFrom",
      "outputs": [],
      "payable": false,
      "stateMutability": "nonpayable",
      "type": "function"
    },
    {
      "constant": true,
      "inputs": [
        {
          "name": "tokenId",
          "type": "uint256"
        }
      ],
      "name": "tokenURI",
      "outputs": [
        {
          "name": "",
          "type": "string"
        }
      ],
      "payable": false,
      "stateMutability": "view",
      "type": "function"
    },
    {
      "constant": true,
      "inputs": [
        {
          "name": "owner",
          "type": "address"
        },
        {
          "name": "operator",
          "type": "address"
        }
      ],
      "name": "isApprovedForAll",
      "outputs": [
        {
          "name": "",
          "type": "bool"
        }
      ],
      "payable": false,
      "stateMutability": "view",
      "type": "function"
    },
    {
      "constant": false,
      "inputs": [
        {
          "name": "newOwner",
          "type": "address"
        }
      ],
      "name": "transferOwnership",
      "outputs": [],
      "payable": false,
      "stateMutability": "nonpayable",
      "type": "function"
    },
    {
      "inputs": [
        {
          "name": "name",
          "type": "string"
        },
        {
          "name": "symbol",
          "type": "string"
        }
      ],
      "payable": false,
      "stateMutability": "nonpayable",
      "type": "constructor"
    },
    {
      "anonymous": false,
      "inputs": [
        {
          "indexed": false,
          "name": "index",
          "type": "bytes32"
        },
        {
          "indexed": false,
          "name": "senderAddress",
          "type": "address"
        }
      ],
      "name": "SolutionAdded",
      "type": "event"
    },
    {
      "anonymous": false,
      "inputs": [
        {
          "indexed": false,
          "name": "s",
          "type": "string"
        }
      ],
      "name": "Verified",
      "type": "event"
    },
    {
      "anonymous": false,
      "inputs": [
        {
          "indexed": true,
          "name": "from",
          "type": "address"
        },
        {
          "indexed": true,
          "name": "to",
          "type": "address"
        },
        {
          "indexed": true,
          "name": "tokenId",
          "type": "uint256"
        }
      ],
      "name": "Transfer",
      "type": "event"
    },
    {
      "anonymous": false,
      "inputs": [
        {
          "indexed": true,
          "name": "owner",
          "type": "address"
        },
        {
          "indexed": true,
          "name": "approved",
          "type": "address"
        },
        {
          "indexed": true,
          "name": "tokenId",
          "type": "uint256"
        }
      ],
      "name": "Approval",
      "type": "event"
    },
    {
      "anonymous": false,
      "inputs": [
        {
          "indexed": true,
          "name": "owner",
          "type": "address"
        },
        {
          "indexed": true,
          "name": "operator",
          "type": "address"
        },
        {
          "indexed": false,
          "name": "approved",
          "type": "bool"
        }
      ],
      "name": "ApprovalForAll",
      "type": "event"
    },
    {
      "anonymous": false,
      "inputs": [
        {
          "indexed": true,
          "name": "oldOwner",
          "type": "address"
        },
        {
          "indexed": true,
          "name": "newOnwer",
          "type": "address"
        }
      ],
      "name": "TransferOwnership",
      "type": "event"
    },
    {
      "constant": false,
      "inputs": [
        {
          "name": "a",
          "type": "uint256[2]"
        },
        {
          "name": "b",
          "type": "uint256[2][2]"
        },
        {
          "name": "c",
          "type": "uint256[2]"
        },
        {
          "name": "inputs",
          "type": "uint256[2]"
        }
      ],
      "name": "addSolution",
      "outputs": [],
      "payable": false,
      "stateMutability": "nonpayable",
      "type": "function"
    },
    {
      "constant": false,
      "inputs": [
        {
          "name": "to",
          "type": "address"
        },
        {
          "name": "tokenId",
          "type": "uint256"
        }
      ],
      "name": "mint",
      "outputs": [
        {
          "name": "",
          "type": "bool"
        }
      ],
      "payable": false,
      "stateMutability": "nonpayable",
      "type": "function"
    },
    {
      "constant": false,
      "inputs": [],
      "name": "getArrLength",
      "outputs": [
        {
          "name": "",
          "type": "uint8"
        }
      ],
      "payable": false,
      "stateMutability": "nonpayable",
      "type": "function"
    }
  ],
  "bytecode": "0x60806040523480156200001157600080fd5b5060405162004ce038038062004ce0833981018060405260408110156200003757600080fd5b8101908080516401000000008111156200005057600080fd5b828101905060208101848111156200006757600080fd5b81518560018202830111640100000000821117156200008557600080fd5b50509291906020018051640100000000811115620000a257600080fd5b82810190506020810184811115620000b957600080fd5b8151856001820283011164010000000082111715620000d757600080fd5b5050929190505050818181816040518060600160405280603f815260200162004ca1603f9139336000806101000a81548173ffffffffffffffffffffffffffffffffffffffff021916908373ffffffffffffffffffffffffffffffffffffffff1602179055506000809054906101000a900473ffffffffffffffffffffffffffffffffffffffff1673ffffffffffffffffffffffffffffffffffffffff16600073ffffffffffffffffffffffffffffffffffffffff167f5c486528ec3e3f0ea91181cff8116f02bfa350e03b8b6f12e00765adbb5af85c60405160405180910390a360008060146101000a81548160ff021916908315150217905550620001eb6301ffc9a760e01b6200028b60201b60201c565b620002036380ac58cd60e01b6200028b60201b60201c565b6200021b63780e9d6360e01b6200028b60201b60201c565b82600f9080519060200190620002339291906200032b565b5081601090805190602001906200024c9291906200032b565b508060119080519060200190620002659291906200032b565b506200027e635b5e139f60e01b6200028b60201b60201c565b50505050505050620003da565b63ffffffff60e01b817bffffffffffffffffffffffffffffffffffffffffffffffffffffffff19161415620002bf57600080fd5b6001806000837bffffffffffffffffffffffffffffffffffffffffffffffffffffffff19167bffffffffffffffffffffffffffffffffffffffffffffffffffffffff1916815260200190815260200160002060006101000a81548160ff02191690831515021790555050565b828054600181600116156101000203166002900490600052602060002090601f016020900481019282601f106200036e57805160ff19168380011785556200039f565b828001600101855582156200039f579182015b828111156200039e57825182559160200191906001019062000381565b5b509050620003ae9190620003b2565b5090565b620003d791905b80821115620003d3576000816000905550600101620003b9565b5090565b90565b6148b780620003ea6000396000f3fe608060405234801561001057600080fd5b50600436106101725760003560e01c80634e41a1fb116100de578063893d20e811610097578063c87b56dd11610071578063c87b56dd14610c17578063e985e9c514610cbe578063f2fde38b14610d3a578063f76b443114610d7e57610172565b8063893d20e814610a78578063a22cb46514610ac2578063b88d4fde14610b1257610172565b80634e41a1fb146107465780634f6ccce7146107ed578063621e9ec01461082f5780636352211e146109a85780636985a02214610a1657806370a0823114610a2057610172565b806327dc297e1161013057806327dc297e146103cb57806327e9b1a0146104905780632f745c59146104b457806338bbfa501461051657806340c10f191461067257806342842e0e146106d857610172565b8062ad800c1461017757806301ffc9a71461021e578063081812fc14610283578063095ea7b3146102f157806318160ddd1461033f57806323b872dd1461035d575b600080fd5b6101a36004803603602081101561018d57600080fd5b8101908080359060200190929190505050610edf565b6040518080602001828103825283818151815260200191508051906020019080838360005b838110156101e35780820151818401526020810190506101c8565b50505050905090810190601f1680156102105780820380516001836020036101000a031916815260200191505b509250505060405180910390f35b6102696004803603602081101561023457600080fd5b8101908080357bffffffffffffffffffffffffffffffffffffffffffffffffffffffff19169060200190929190505050610ffe565b604051808215151515815260200191505060405180910390f35b6102af6004803603602081101561029957600080fd5b8101908080359060200190929190505050611066565b604051808273ffffffffffffffffffffffffffffffffffffffff1673ffffffffffffffffffffffffffffffffffffffff16815260200191505060405180910390f35b61033d6004803603604081101561030757600080fd5b81019080803573ffffffffffffffffffffffffffffffffffffffff16906020019092919080359060200190929190505050611101565b005b6103476112da565b6040518082815260200191505060405180910390f35b6103c96004803603606081101561037357600080fd5b81019080803573ffffffffffffffffffffffffffffffffffffffff169060200190929190803573ffffffffffffffffffffffffffffffffffffffff169060200190929190803590602001909291905050506112e7565b005b61048e600480360360408110156103e157600080fd5b81019080803590602001909291908035906020019064010000000081111561040857600080fd5b82018360208201111561041a57600080fd5b8035906020019184600183028401116401000000008311171561043c57600080fd5b91908080601f016020809104026020016040519081016040528093929190818152602001838380828437600081840152601f19601f820116905080830192505050505050509192919290505050611356565b005b610498611399565b604051808260ff1660ff16815260200191505060405180910390f35b610500600480360360408110156104ca57600080fd5b81019080803573ffffffffffffffffffffffffffffffffffffffff169060200190929190803590602001909291905050506113ab565b6040518082815260200191505060405180910390f35b6106706004803603606081101561052c57600080fd5b81019080803590602001909291908035906020019064010000000081111561055357600080fd5b82018360208201111561056557600080fd5b8035906020019184600183028401116401000000008311171561058757600080fd5b91908080601f016020809104026020016040519081016040528093929190818152602001838380828437600081840152601f19601f820116905080830192505050505050509192919290803590602001906401000000008111156105ea57600080fd5b8201836020820111156105fc57600080fd5b8035906020019184600183028401116401000000008311171561061e57600080fd5b91908080601f016020809104026020016040519081016040528093929190818152602001838380828437600081840152601f19601f82011690508083019250505050505050919291929050505061141e565b005b6106be6004803603604081101561068857600080fd5b81019080803573ffffffffffffffffffffffffffffffffffffffff16906020019092919080359060200190929190505050611423565b604051808215151515815260200191505060405180910390f35b610744600480360360608110156106ee57600080fd5b81019080803573ffffffffffffffffffffffffffffffffffffffff169060200190929190803573ffffffffffffffffffffffffffffffffffffffff169060200190929190803590602001909291905050506115e5565b005b6107726004803603602081101561075c57600080fd5b8101908080359060200190929190505050611605565b6040518080602001828103825283818151815260200191508051906020019080838360005b838110156107b2578082015181840152602081019050610797565b50505050905090810190601f1680156107df5780820380516001836020036101000a031916815260200191505b509250505060405180910390f35b6108196004803603602081101561080357600080fd5b8101908080359060200190929190505050611724565b6040518082815260200191505060405180910390f35b61098e600480360361014081101561084657600080fd5b8101908080604001906002806020026040519081016040528092919082600260200280828437600081840152601f19601f82011690508083019250505050505091929192908060800190600280602002604051908101604052809291906000905b828210156108fb578382604002016002806020026040519081016040528092919082600260200280828437600081840152601f19601f820116905080830192505050505050815260200190600101906108a7565b50505050919291929080604001906002806020026040519081016040528092919082600260200280828437600081840152601f19601f820116905080830192505050505050919291929080604001906002806020026040519081016040528092919082600260200280828437600081840152601f19601f8201169050808301925050505050509192919290505050611758565b604051808215151515815260200191505060405180910390f35b6109d4600480360360208110156109be57600080fd5b810190808035906020019092919050505061199f565b604051808273ffffffffffffffffffffffffffffffffffffffff1673ffffffffffffffffffffffffffffffffffffffff16815260200191505060405180910390f35b610a1e611a67565b005b610a6260048036036020811015610a3657600080fd5b81019080803573ffffffffffffffffffffffffffffffffffffffff169060200190929190505050611b46565b6040518082815260200191505060405180910390f35b610a80611c38565b604051808273ffffffffffffffffffffffffffffffffffffffff1673ffffffffffffffffffffffffffffffffffffffff16815260200191505060405180910390f35b610b1060048036036040811015610ad857600080fd5b81019080803573ffffffffffffffffffffffffffffffffffffffff169060200190929190803515159060200190929190505050611c61565b005b610c1560048036036080811015610b2857600080fd5b81019080803573ffffffffffffffffffffffffffffffffffffffff169060200190929190803573ffffffffffffffffffffffffffffffffffffffff1690602001909291908035906020019092919080359060200190640100000000811115610b8f57600080fd5b820183602082011115610ba157600080fd5b80359060200191846001830284011164010000000083111715610bc357600080fd5b91908080601f016020809104026020016040519081016040528093929190818152602001838380828437600081840152601f19601f820116905080830192505050505050509192919290505050611de7565b005b610c4360048036036020811015610c2d57600080fd5b8101908080359060200190929190505050611e58565b6040518080602001828103825283818151815260200191508051906020019080838360005b83811015610c83578082015181840152602081019050610c68565b50505050905090810190601f168015610cb05780820380516001836020036101000a031916815260200191505b509250505060405180910390f35b610d2060048036036040811015610cd457600080fd5b81019080803573ffffffffffffffffffffffffffffffffffffffff169060200190929190803573ffffffffffffffffffffffffffffffffffffffff169060200190929190505050611f88565b604051808215151515815260200191505060405180910390f35b610d7c60048036036020811015610d5057600080fd5b81019080803573ffffffffffffffffffffffffffffffffffffffff16906020019092919050505061201c565b005b610edd6004803603610140811015610d9557600080fd5b8101908080604001906002806020026040519081016040528092919082600260200280828437600081840152601f19601f82011690508083019250505050505091929192908060800190600280602002604051908101604052809291906000905b82821015610e4a578382604002016002806020026040519081016040528092919082600260200280828437600081840152601f19601f82011690508083019250505050505081526020019060010190610df6565b50505050919291929080604001906002806020026040519081016040528092919082600260200280828437600081840152601f19601f820116905080830192505050505050919291929080604001906002806020026040519081016040528092919082600260200280828437600081840152601f19601f820116905080830192505050505050919291929050505061223f565b005b6060610eea826125d0565b610f5c576040517f08c379a000000000000000000000000000000000000000000000000000000000815260040180806020018281038252601b8152602001807f7468617420746f6b656e496420646f6573206e6f74206578697374000000000081525060200191505060405180910390fd5b600f8054600181600116156101000203166002900480601f016020809104026020016040519081016040528092919081815260200182805460018160011615610100020316600290048015610ff25780601f10610fc757610100808354040283529160200191610ff2565b820191906000526020600020905b815481529060010190602001808311610fd557829003601f168201915b50505050509050919050565b600060016000837bffffffffffffffffffffffffffffffffffffffffffffffffffffffff19167bffffffffffffffffffffffffffffffffffffffffffffffffffffffff1916815260200190815260200160002060009054906101000a900460ff169050919050565b6000611071826125d0565b6110c6576040517f08c379a000000000000000000000000000000000000000000000000000000000815260040180806020018281038252602c8152602001806147a3602c913960400191505060405180910390fd5b6003600083815260200190815260200160002060009054906101000a900473ffffffffffffffffffffffffffffffffffffffff169050919050565b600061110c8261199f565b90508073ffffffffffffffffffffffffffffffffffffffff168373ffffffffffffffffffffffffffffffffffffffff161415611193576040517f08c379a00000000000000000000000000000000000000000000000000000000081526004018080602001828103825260218152602001806148196021913960400191505060405180910390fd5b8073ffffffffffffffffffffffffffffffffffffffff163373ffffffffffffffffffffffffffffffffffffffff1614806111d357506111d28133611f88565b5b611228576040517f08c379a00000000000000000000000000000000000000000000000000000000081526004018080602001828103825260388152602001806147206038913960400191505060405180910390fd5b826003600084815260200190815260200160002060006101000a81548173ffffffffffffffffffffffffffffffffffffffff021916908373ffffffffffffffffffffffffffffffffffffffff160217905550818373ffffffffffffffffffffffffffffffffffffffff168273ffffffffffffffffffffffffffffffffffffffff167f8c5be1e5ebec7d5bd14f71427d1e84f3dd0314c0f7b2291e5b200ac8c7c3b92560405160405180910390a4505050565b6000600880549050905090565b6112f13382612642565b611346576040517f08c379a00000000000000000000000000000000000000000000000000000000081526004018080602001828103825260218152602001806147f86021913960400191505060405180910390fd5b611351838383612736565b505050565b611395828260006040519080825280601f01601f19166020018201604052801561138f5781602001600182028038833980820191505090505b5061141e565b5050565b60008060138054905090508091505090565b60006113b683611b46565b82106113c157600080fd5b600660008473ffffffffffffffffffffffffffffffffffffffff1673ffffffffffffffffffffffffffffffffffffffff168152602001908152602001600020828154811061140b57fe5b9060005260206000200154905092915050565b505050565b600061142d614432565b601460008573ffffffffffffffffffffffffffffffffffffffff1673ffffffffffffffffffffffffffffffffffffffff168152602001908152602001600020604051806060016040529081600082015481526020016001820160009054906101000a900473ffffffffffffffffffffffffffffffffffffffff1673ffffffffffffffffffffffffffffffffffffffff1673ffffffffffffffffffffffffffffffffffffffff1681526020016001820160149054906101000a900460ff161515151581525050905080604001511561156c576040517f08c379a000000000000000000000000000000000000000000000000000000000815260040180806020018281038252601c8152602001807f7468697320736f6c7574696f6e2069732075736564206265666f72650000000081525060200191505060405180910390fd5b611576848461275a565b6001601460008673ffffffffffffffffffffffffffffffffffffffff1673ffffffffffffffffffffffffffffffffffffffff16815260200190815260200160002060010160146101000a81548160ff0219169083151502179055506115da8361277b565b600191505092915050565b61160083838360405180602001604052806000815250611de7565b505050565b6060611610826125d0565b611682576040517f08c379a000000000000000000000000000000000000000000000000000000000815260040180806020018281038252601b8152602001807f7468617420746f6b656e496420646f6573206e6f74206578697374000000000081525060200191505060405180910390fd5b60108054600181600116156101000203166002900480601f0160208091040260200160405190810160405280929190818152602001828054600181600116156101000203166002900480156117185780601f106116ed57610100808354040283529160200191611718565b820191906000526020600020905b8154815290600101906020018083116116fb57829003601f168201915b50505050509050919050565b600061172e6112da565b821061173957600080fd5b6008828154811061174657fe5b90600052602060002001549050919050565b600061176261446e565b60405180604001604052808760006002811061177a57fe5b602002015181526020018760016002811061179157fe5b6020020151815250816000018190525060405180604001604052806040518060400160405280886000600281106117c457fe5b60200201516000600281106117d557fe5b60200201518152602001886000600281106117ec57fe5b60200201516001600281106117fd57fe5b6020020151815250815260200160405180604001604052808860016002811061182257fe5b602002015160006002811061183357fe5b602002015181526020018860016002811061184a57fe5b602002015160016002811061185b57fe5b6020020151815250815250816020018190525060405180604001604052808560006002811061188657fe5b602002015181526020018560016002811061189d57fe5b60200201518152508160400181905250606060026040519080825280602002602001820160405280156118df5781602001602082028038833980820191505090505b50905060008090505b6002811015611927578481600281106118fd57fe5b602002015182828151811061190e57fe5b60200260200101818152505080806001019150506118e8565b50600061193482846128cc565b1415611990577f3f3cfdb26fb5f9f1786ab4f1a1f9cd4c0b5e726cbdfc26e495261731aad44e396040518080602001828103825260228152602001806147816022913960400191505060405180910390a1600192505050611997565b6000925050505b949350505050565b6000806002600084815260200190815260200160002060009054906101000a900473ffffffffffffffffffffffffffffffffffffffff169050600073ffffffffffffffffffffffffffffffffffffffff168173ffffffffffffffffffffffffffffffffffffffff161415611a5e576040517f08c379a00000000000000000000000000000000000000000000000000000000081526004018080602001828103825260298152602001806147586029913960400191505060405180910390fd5b80915050919050565b6000809054906101000a900473ffffffffffffffffffffffffffffffffffffffff1673ffffffffffffffffffffffffffffffffffffffff163373ffffffffffffffffffffffffffffffffffffffff1614611b29576040517f08c379a000000000000000000000000000000000000000000000000000000000815260040180806020018281038252601a8152602001807f6f6e6c7920746865206f776e65722063616e206578656375746500000000000081525060200191505060405180910390fd5b6001600060146101000a81548160ff021916908315150217905550565b60008073ffffffffffffffffffffffffffffffffffffffff168273ffffffffffffffffffffffffffffffffffffffff161415611bea576040517f08c379a00000000000000000000000000000000000000000000000000000000081526004018080602001828103825260138152602001807f7468652061646472657373206973206e756c6c0000000000000000000000000081525060200191505060405180910390fd5b611c31600460008473ffffffffffffffffffffffffffffffffffffffff1673ffffffffffffffffffffffffffffffffffffffff168152602001908152602001600020612a3e565b9050919050565b60008060009054906101000a900473ffffffffffffffffffffffffffffffffffffffff16905090565b3373ffffffffffffffffffffffffffffffffffffffff168273ffffffffffffffffffffffffffffffffffffffff161415611ce6576040517f08c379a000000000000000000000000000000000000000000000000000000000815260040180806020018281038252602181526020018061483a6021913960400191505060405180910390fd5b80600560003373ffffffffffffffffffffffffffffffffffffffff1673ffffffffffffffffffffffffffffffffffffffff16815260200190815260200160002060008473ffffffffffffffffffffffffffffffffffffffff1673ffffffffffffffffffffffffffffffffffffffff16815260200190815260200160002060006101000a81548160ff0219169083151502179055508173ffffffffffffffffffffffffffffffffffffffff163373ffffffffffffffffffffffffffffffffffffffff167f17307eab39ab6107e8899845ad3d59bd9653f200f220920489ca2b5937696c3183604051808215151515815260200191505060405180910390a35050565b611df13383612642565b611e46576040517f08c379a000000000000000000000000000000000000000000000000000000000815260040180806020018281038252603181526020018061485b6031913960400191505060405180910390fd5b611e5284848484612a4c565b50505050565b6060611e63826125d0565b611ed5576040517f08c379a000000000000000000000000000000000000000000000000000000000815260040180806020018281038252601b8152602001807f7468617420746f6b656e496420646f6573206e6f74206578697374000000000081525060200191505060405180910390fd5b601260008381526020019081526020016000208054600181600116156101000203166002900480601f016020809104026020016040519081016040528092919081815260200182805460018160011615610100020316600290048015611f7c5780601f10611f5157610100808354040283529160200191611f7c565b820191906000526020600020905b815481529060010190602001808311611f5f57829003601f168201915b50505050509050919050565b6000600560008473ffffffffffffffffffffffffffffffffffffffff1673ffffffffffffffffffffffffffffffffffffffff16815260200190815260200160002060008373ffffffffffffffffffffffffffffffffffffffff1673ffffffffffffffffffffffffffffffffffffffff16815260200190815260200160002060009054906101000a900460ff16905092915050565b6000809054906101000a900473ffffffffffffffffffffffffffffffffffffffff1673ffffffffffffffffffffffffffffffffffffffff163373ffffffffffffffffffffffffffffffffffffffff16146120de576040517f08c379a000000000000000000000000000000000000000000000000000000000815260040180806020018281038252601a8152602001807f6f6e6c7920746865206f776e65722063616e206578656375746500000000000081525060200191505060405180910390fd5b600073ffffffffffffffffffffffffffffffffffffffff168173ffffffffffffffffffffffffffffffffffffffff161415612181576040517f08c379a00000000000000000000000000000000000000000000000000000000081526004018080602001828103825260138152602001807f7468652061646472657373206973206e756c6c0000000000000000000000000081525060200191505060405180910390fd5b806000806101000a81548173ffffffffffffffffffffffffffffffffffffffff021916908373ffffffffffffffffffffffffffffffffffffffff1602179055508073ffffffffffffffffffffffffffffffffffffffff166000809054906101000a900473ffffffffffffffffffffffffffffffffffffffff1673ffffffffffffffffffffffffffffffffffffffff167f5c486528ec3e3f0ea91181cff8116f02bfa350e03b8b6f12e00765adbb5af85c60405160405180910390a350565b600061224d85858585611758565b9050806122c2576040517f08c379a00000000000000000000000000000000000000000000000000000000081526004018080602001828103825260198152602001807f54686520736f6c7574696f6e206973206e6f742076616c69640000000000000081525060200191505060405180910390fd5b6000858585856040516020018085600260200280838360005b838110156122f65780820151818401526020810190506122db565b505050509050018460026000925b8184101561234a5782846020020151600260200280838360005b8381101561233957808201518184015260208101905061231e565b505050509050019260010192612304565b9250505083600260200280838360005b8381101561237557808201518184015260208101905061235a565b5050505090500182600260200280838360005b838110156123a3578082015181840152602081019050612388565b505050509050019450505050506040516020818303038152906040528051906020012090506123d0614432565b60405180606001604052808381526020013373ffffffffffffffffffffffffffffffffffffffff16815260200160001515815250905080601460003373ffffffffffffffffffffffffffffffffffffffff1673ffffffffffffffffffffffffffffffffffffffff1681526020019081526020016000206000820151816000015560208201518160010160006101000a81548173ffffffffffffffffffffffffffffffffffffffff021916908373ffffffffffffffffffffffffffffffffffffffff16021790555060408201518160010160146101000a81548160ff021916908315150217905550905050601381908060018154018082558091505090600182039060005260206000209060020201600090919290919091506000820151816000015560208201518160010160006101000a81548173ffffffffffffffffffffffffffffffffffffffff021916908373ffffffffffffffffffffffffffffffffffffffff16021790555060408201518160010160146101000a81548160ff0219169083151502179055505050507f01d5f9f5a890e5385b4f1d07d3c8c1f739f82bb433ed461d4551b7af3edc63408233604051808381526020018273ffffffffffffffffffffffffffffffffffffffff1673ffffffffffffffffffffffffffffffffffffffff1681526020019250505060405180910390a150505050505050565b6000806002600084815260200190815260200160002060009054906101000a900473ffffffffffffffffffffffffffffffffffffffff169050600073ffffffffffffffffffffffffffffffffffffffff168173ffffffffffffffffffffffffffffffffffffffff161415915050919050565b600061264d826125d0565b6126a2576040517f08c379a000000000000000000000000000000000000000000000000000000000815260040180806020018281038252602c8152602001806146f4602c913960400191505060405180910390fd5b60006126ad8361199f565b90508073ffffffffffffffffffffffffffffffffffffffff168473ffffffffffffffffffffffffffffffffffffffff16148061271c57508373ffffffffffffffffffffffffffffffffffffffff1661270484611066565b73ffffffffffffffffffffffffffffffffffffffff16145b8061272d575061272c8185611f88565b5b91505092915050565b612741838383612abe565b61274b8382612d19565b6127558282612eb7565b505050565b6127648282612f7e565b61276e8282612eb7565b61277781613196565b5050565b612784816125d0565b6127f6576040517f08c379a000000000000000000000000000000000000000000000000000000000815260040180806020018281038252601b8152602001807f7468617420746f6b656e496420646f6573206e6f74206578697374000000000081525060200191505060405180910390fd5b6128a260118054600181600116156101000203166002900480601f01602080910402602001604051908101604052809291908181526020018280546001816001161561010002031660029004801561288f5780601f106128645761010080835404028352916020019161288f565b820191906000526020600020905b81548152906001019060200180831161287257829003601f168201915b505050505061289d836131e2565b61330f565b6012600083815260200190815260200160002090805190602001906128c89291906144a2565b5050565b6000807f30644e72e131a029b85045b68181585d2833e84879b9709143e1f593f000000190506128fa614522565b612902613353565b905080608001515160018651011461291957600080fd5b61292161456a565b6040518060400160405280600081526020016000815250905060008090505b86518110156129b7578387828151811061295657fe5b60200260200101511061296857600080fd5b6129a8826129a38560800151600185018151811061298257fe5b60200260200101518a858151811061299657fe5b60200260200101516137a1565b613835565b91508080600101915050612940565b506129da8183608001516000815181106129cd57fe5b6020026020010151613835565b9050612a20856000015186602001516129f2846138e8565b8560400151612a048a604001516138e8565b8760600151612a1689600001516138e8565b8960200151613982565b612a305760019350505050612a38565b600093505050505b92915050565b600081600001549050919050565b612a57848484612736565b612a6384848484613ae6565b612ab8576040517f08c379a000000000000000000000000000000000000000000000000000000000815260040180806020018281038252603281526020018061469e6032913960400191505060405180910390fd5b50505050565b8273ffffffffffffffffffffffffffffffffffffffff16612ade8261199f565b73ffffffffffffffffffffffffffffffffffffffff1614612b4a576040517f08c379a00000000000000000000000000000000000000000000000000000000081526004018080602001828103825260298152602001806147cf6029913960400191505060405180910390fd5b600073ffffffffffffffffffffffffffffffffffffffff168273ffffffffffffffffffffffffffffffffffffffff161415612bd0576040517f08c379a00000000000000000000000000000000000000000000000000000000081526004018080602001828103825260248152602001806146d06024913960400191505060405180910390fd5b612bd981613ccf565b612c20600460008573ffffffffffffffffffffffffffffffffffffffff1673ffffffffffffffffffffffffffffffffffffffff168152602001908152602001600020613d8d565b612c67600460008473ffffffffffffffffffffffffffffffffffffffff1673ffffffffffffffffffffffffffffffffffffffff168152602001908152602001600020613db0565b816002600083815260200190815260200160002060006101000a81548173ffffffffffffffffffffffffffffffffffffffff021916908373ffffffffffffffffffffffffffffffffffffffff160217905550808273ffffffffffffffffffffffffffffffffffffffff168473ffffffffffffffffffffffffffffffffffffffff167fddf252ad1be2c89b69c2b068fc378daa952ba7f163c4a11628f55a4df523b3ef60405160405180910390a4505050565b6000612d716001600660008673ffffffffffffffffffffffffffffffffffffffff1673ffffffffffffffffffffffffffffffffffffffff16815260200190815260200160002080549050613dc690919063ffffffff16565b9050600060076000848152602001908152602001600020549050818114612e5e576000600660008673ffffffffffffffffffffffffffffffffffffffff1673ffffffffffffffffffffffffffffffffffffffff1681526020019081526020016000208381548110612dde57fe5b9060005260206000200154905080600660008773ffffffffffffffffffffffffffffffffffffffff1673ffffffffffffffffffffffffffffffffffffffff1681526020019081526020016000208381548110612e3657fe5b9060005260206000200181905550816007600083815260200190815260200160002081905550505b600660008573ffffffffffffffffffffffffffffffffffffffff1673ffffffffffffffffffffffffffffffffffffffff168152602001908152602001600020805480919060019003612eb09190614584565b5050505050565b600660008373ffffffffffffffffffffffffffffffffffffffff1673ffffffffffffffffffffffffffffffffffffffff168152602001908152602001600020805490506007600083815260200190815260200160002081905550600660008373ffffffffffffffffffffffffffffffffffffffff1673ffffffffffffffffffffffffffffffffffffffff1681526020019081526020016000208190806001815401808255809150509060018203906000526020600020016000909192909190915055505050565b600073ffffffffffffffffffffffffffffffffffffffff168273ffffffffffffffffffffffffffffffffffffffff161415613021576040517f08c379a00000000000000000000000000000000000000000000000000000000081526004018080602001828103825260208152602001807f4552433732313a206d696e7420746f20746865207a65726f206164647265737381525060200191505060405180910390fd5b61302a816125d0565b1561309d576040517f08c379a000000000000000000000000000000000000000000000000000000000815260040180806020018281038252601c8152602001807f4552433732313a20746f6b656e20616c7265616479206d696e7465640000000081525060200191505060405180910390fd5b816002600083815260200190815260200160002060006101000a81548173ffffffffffffffffffffffffffffffffffffffff021916908373ffffffffffffffffffffffffffffffffffffffff160217905550613136600460008473ffffffffffffffffffffffffffffffffffffffff1673ffffffffffffffffffffffffffffffffffffffff168152602001908152602001600020613db0565b808273ffffffffffffffffffffffffffffffffffffffff16600073ffffffffffffffffffffffffffffffffffffffff167fddf252ad1be2c89b69c2b068fc378daa952ba7f163c4a11628f55a4df523b3ef60405160405180910390a45050565b6008805490506009600083815260200190815260200160002081905550600881908060018154018082558091505090600182039060005260206000200160009091929091909150555050565b6060600082141561322a576040518060400160405280600181526020017f3000000000000000000000000000000000000000000000000000000000000000815250905061330a565b600082905060005b60008214613254578080600101915050600a828161324c57fe5b049150613232565b6060816040519080825280601f01601f1916602001820160405280156132895781602001600182028038833980820191505090505b50905060006001830390505b6000861461330257600a86816132a757fe5b0660300160f81b828280600190039350815181106132c157fe5b60200101907effffffffffffffffffffffffffffffffffffffffffffffffffffffffffffff1916908160001a905350600a86816132fa57fe5b049550613295565b819450505050505b919050565b606061334b8383604051806020016040528060008152506040518060200160405280600081525060405180602001604052806000815250613e10565b905092915050565b61335b614522565b60405180604001604052807f2865d215c807f3718f50df2a1148db10c18c3ea513b1c7afa41f44a4c1c5b98b81526020017f0beb6eccb9fa0789b31fb9460bf3cb9ec8ef54d5fecdcc1809c72d40b6351b948152508160000181905250604051806040016040528060405180604001604052807f0e4f7972b77b7f5d8f7b19b4ef536823ba3704b77bf6bd11a2a7ff4bf48dff2581526020017f2556a7080dc033d570d9798c7922168bb28b4776291c6307271ba203a363485d815250815260200160405180604001604052807f12e281304eac25398fd0bed775c0dc0d1e58e51d7841621e53ed06dda7b89bd481526020017f051d5322cbf5260bffc83b74d686736f82f0dde01f97068acd1888ef87c2fc138152508152508160200181905250604051806040016040528060405180604001604052807f12c3f0b44090d93844e0d7f722e7fc0f4613cdefaba8a0f15ebb768794f5e3d181526020017f1c82567a6d710da34ab2f164a52d0aa6fe7ac0ea5f8a8a0778279679a792945b815250815260200160405180604001604052807f13a5efb57324606baa4f15087e407c3c2ea8f477bcb75f15991aa8f33fcb68da81526020017f2b5b83ee5a5c1199b4ac7663a64597cf04867cf6172ada7c9c674e298cc899008152508152508160400181905250604051806040016040528060405180604001604052807f04360cc60323f961111b23eccdd65d0640c5106a73f54387c1cfa873fe94266581526020017f20ca23db2ee71bc0fed2cd9dd3523ffd930a7cec20fb41fed2e5463702614e4e815250815260200160405180604001604052807f2fc4cb9edb735a32097354eca648d5f630e0e95e07cec5df279a73181a29aa2c81526020017f21e59125ccfa02f9af5f84e2e0b572c53fbacc45a49ef1f953b7f3a81ac693d58152508152508160600181905250600360405190808252806020026020018201604052801561364257816020015b61362f6145b0565b8152602001906001900390816136275790505b50816080018190525060405180604001604052807f28d8cc1b0b4e5699f6d6a168e6e2f2379b9b1b463b40b64c836590123bb814b281526020017f204dacc7c14c026528d4f0c947c3f3068d8f7d88816f6cd03e2c50900162c4df81525081608001516000815181106136b157fe5b602002602001018190525060405180604001604052807f12a430b9acb347a3dc594feacb1063fdd9c46f2ccc193190f5a96cb3c44233cb81526020017f182380bd603fd14711818d6ea901d7efafc1657e574164071a9104488a017821815250816080015160018151811061372257fe5b602002602001018190525060405180604001604052807f2b1b1694c229d39b5aa7f4d3bb4e022cf6e4a4cecf1fcdb5da3db4918dba725f81526020017f0ecb53dc6bf2196ec65759aac20bae428f8798df45a96872d667d6e6a5cd33d0815250816080015160028151811061379357fe5b602002602001018190525090565b6137a961456a565b6137b16145ca565b8360000151816000600381106137c357fe5b6020020181815250508360200151816001600381106137de57fe5b60200201818152505082816002600381106137f557fe5b6020020181815250506000606083608084600060076107d05a03f19050806000811461382057613822565bfe5b508061382d57600080fd5b505092915050565b61383d61456a565b6138456145ec565b83600001518160006004811061385757fe5b60200201818152505083602001518160016004811061387257fe5b60200201818152505082600001518160026004811061388d57fe5b6020020181815250508260200151816003600481106138a857fe5b602002018181525050600060608360c084600060066107d05a03f1905080600081146138d3576138d5565bfe5b50806138e057600080fd5b505092915050565b6138f061456a565b60007f30644e72e131a029b85045b68181585d97816a916871ca8d3c208c16d87cfd4790506000836000015114801561392d575060008360200151145b1561395157604051806040016040528060008152602001600081525091505061397d565b6040518060400160405280846000015181526020018285602001518161397357fe5b0683038152509150505b919050565b6000606060046040519080825280602002602001820160405280156139c157816020015b6139ae6145b0565b8152602001906001900390816139a65790505b50905060606004604051908082528060200260200182016040528015613a0157816020015b6139ee61460e565b8152602001906001900390816139e65790505b5090508a82600081518110613a1257fe5b60200260200101819052508882600181518110613a2b57fe5b60200260200101819052508682600281518110613a4457fe5b60200260200101819052508482600381518110613a5d57fe5b60200260200101819052508981600081518110613a7657fe5b60200260200101819052508781600181518110613a8f57fe5b60200260200101819052508581600281518110613aa857fe5b60200260200101819052508381600381518110613ac157fe5b6020026020010181905250613ad682826140d2565b9250505098975050505050505050565b6000613b078473ffffffffffffffffffffffffffffffffffffffff16614327565b613b145760019050613cc7565b60008473ffffffffffffffffffffffffffffffffffffffff1663150b7a02338887876040518563ffffffff1660e01b8152600401808573ffffffffffffffffffffffffffffffffffffffff1673ffffffffffffffffffffffffffffffffffffffff1681526020018473ffffffffffffffffffffffffffffffffffffffff1673ffffffffffffffffffffffffffffffffffffffff16815260200183815260200180602001828103825283818151815260200191508051906020019080838360005b83811015613bef578082015181840152602081019050613bd4565b50505050905090810190601f168015613c1c5780820380516001836020036101000a031916815260200191505b5095505050505050602060405180830381600087803b158015613c3e57600080fd5b505af1158015613c52573d6000803e3d6000fd5b505050506040513d6020811015613c6857600080fd5b8101908080519060200190929190505050905063150b7a0260e01b7bffffffffffffffffffffffffffffffffffffffffffffffffffffffff1916817bffffffffffffffffffffffffffffffffffffffffffffffffffffffff1916149150505b949350505050565b600073ffffffffffffffffffffffffffffffffffffffff166003600083815260200190815260200160002060009054906101000a900473ffffffffffffffffffffffffffffffffffffffff1673ffffffffffffffffffffffffffffffffffffffff1614613d8a5760006003600083815260200190815260200160002060006101000a81548173ffffffffffffffffffffffffffffffffffffffff021916908373ffffffffffffffffffffffffffffffffffffffff1602179055505b50565b613da560018260000154613dc690919063ffffffff16565b816000018190555050565b6001816000016000828254019250508190555050565b6000613e0883836040518060400160405280601e81526020017f536166654d6174683a207375627472616374696f6e206f766572666c6f770000815250614372565b905092915050565b6060808690506060869050606086905060608690506060869050606081518351855187518951010101016040519080825280601f01601f191660200182016040528015613e6c5781602001600182028038833980820191505090505b509050606081905060008090506000809050600090505b8851811015613ef157888181518110613e9857fe5b602001015160f81c60f81b838380600101945081518110613eb557fe5b60200101907effffffffffffffffffffffffffffffffffffffffffffffffffffffffffffff1916908160001a9053508080600101915050613e83565b600090505b8751811015613f6457878181518110613f0b57fe5b602001015160f81c60f81b838380600101945081518110613f2857fe5b60200101907effffffffffffffffffffffffffffffffffffffffffffffffffffffffffffff1916908160001a9053508080600101915050613ef6565b600090505b8651811015613fd757868181518110613f7e57fe5b602001015160f81c60f81b838380600101945081518110613f9b57fe5b60200101907effffffffffffffffffffffffffffffffffffffffffffffffffffffffffffff1916908160001a9053508080600101915050613f69565b600090505b855181101561404a57858181518110613ff157fe5b602001015160f81c60f81b83838060010194508151811061400e57fe5b60200101907effffffffffffffffffffffffffffffffffffffffffffffffffffffffffffff1916908160001a9053508080600101915050613fdc565b600090505b84518110156140bd5784818151811061406457fe5b602001015160f81c60f81b83838060010194508151811061408157fe5b60200101907effffffffffffffffffffffffffffffffffffffffffffffffffffffffffffff1916908160001a905350808060010191505061404f565b82995050505050505050505095945050505050565b600081518351146140e257600080fd5b60008351905060006006820290506060816040519080825280602002602001820160405280156141215781602001602082028038833980820191505090505b50905060008090505b838110156142c75786818151811061413e57fe5b60200260200101516000015182600060068402018151811061415c57fe5b60200260200101818152505086818151811061417457fe5b60200260200101516020015182600160068402018151811061419257fe5b6020026020010181815250508581815181106141aa57fe5b6020026020010151600001516000600281106141c257fe5b60200201518260026006840201815181106141d957fe5b6020026020010181815250508581815181106141f157fe5b60200260200101516000015160016002811061420957fe5b602002015182600360068402018151811061422057fe5b60200260200101818152505085818151811061423857fe5b60200260200101516020015160006002811061425057fe5b602002015182600460068402018151811061426757fe5b60200260200101818152505085818151811061427f57fe5b60200260200101516020015160016002811061429757fe5b60200201518260056006840201815181106142ae57fe5b602002602001018181525050808060010191505061412a565b506142d0614634565b60006020826020860260208601600060086107d05a03f1905080600081146142f7576142f9565bfe5b508061430457600080fd5b60008260006001811061431357fe5b602002015114159550505050505092915050565b60008060007fc5d2460186f7233c927e7db2dcc703c0e500b653ca82273b7bfad8045d85a47060001b9050833f91506000801b82141580156143695750808214155b92505050919050565b600083831115829061441f576040517f08c379a00000000000000000000000000000000000000000000000000000000081526004018080602001828103825283818151815260200191508051906020019080838360005b838110156143e45780820151818401526020810190506143c9565b50505050905090810190601f1680156144115780820380516001836020036101000a031916815260200191505b509250505060405180910390fd5b5060008385039050809150509392505050565b604051806060016040528060008019168152602001600073ffffffffffffffffffffffffffffffffffffffff1681526020016000151581525090565b6040518061010001604052806144826145b0565b815260200161448f61460e565b815260200161449c6145b0565b81525090565b828054600181600116156101000203166002900490600052602060002090601f016020900481019282601f106144e357805160ff1916838001178555614511565b82800160010185558215614511579182015b828111156145105782518255916020019190600101906144f5565b5b50905061451e9190614656565b5090565b604051806101e001604052806145366145b0565b815260200161454361460e565b815260200161455061460e565b815260200161455d61460e565b8152602001606081525090565b604051806040016040528060008152602001600081525090565b8154818355818111156145ab578183600052602060002091820191016145aa9190614656565b5b505050565b604051806040016040528060008152602001600081525090565b6040518060600160405280600390602082028038833980820191505090505090565b6040518060800160405280600490602082028038833980820191505090505090565b604051806080016040528061462161467b565b815260200161462e61467b565b81525090565b6040518060200160405280600190602082028038833980820191505090505090565b61467891905b8082111561467457600081600090555060010161465c565b5090565b90565b604051806040016040528060029060208202803883398082019150509050509056fe4552433732313a207472616e7366657220746f206e6f6e20455243373231526563656976657220696d706c656d656e7465724552433732313a207472616e7366657220746f20746865207a65726f20616464726573734552433732313a206f70657261746f7220717565727920666f72206e6f6e6578697374656e7420746f6b656e4552433732313a20617070726f76652063616c6c6572206973206e6f74206f776e6572206e6f7220617070726f76656420666f7220616c6c4552433732313a206f776e657220717565727920666f72206e6f6e6578697374656e7420746f6b656e5472616e73616374696f6e207375636365737366756c6c792076657269666965642e4552433732313a20617070726f76656420717565727920666f72206e6f6e6578697374656e7420746f6b656e4552433732313a207472616e73666572206f6620746f6b656e2074686174206973206e6f74206f776e6f6e6c7920617070726f76656420706572736f6e2063616e207472616e736665724552433732313a20617070726f76616c20746f2063757272656e74206f776e657273656e6465722073686f756c64206e6f74206265207468652072656365697665724552433732313a207472616e736665722063616c6c6572206973206e6f74206f776e6572206e6f7220617070726f766564a165627a7a72305820f54c27c3f2e86ea597792e82a1d7cc671a3483e124dd7b911e07639299c5c7c1002968747470733a2f2f73332d75732d776573742d322e616d617a6f6e6177732e636f6d2f756461636974792d626c6f636b636861696e2f63617073746f6e652f",
  "source": "pragma solidity >=0.4.21 <0.6.0;\n\nimport './ERC721Mintable.sol';\nimport './verifier.sol';\n\n// TODO define a contract call to the zokrates generated solidity contract <Verifier> or <renamedVerifier>\n// TODO define another contract named SolnSquareVerifier that inherits from your ERC721Mintable class\n\ncontract SolnSquareVerifier is ERC721TokenComplete, Verifier {\n\n    // TODO define a solutions struct that can hold an index & an address\n    struct Solution {\n        bytes32 hashIndex;\n        address senderAddress;\n        bool isMinted;\n    }\n\n// TODO define an array of the above struct\n    Solution[] solutionsArr;\n\n// TODO define a mapping to store unique solutions submitted\n    mapping (address => Solution) solutions;\n\n// TODO Create an event to emit when a solution is added\n    event SolutionAdded(bytes32 index, address senderAddress);\n\n// TODO Create a function to add the solutions to the array and emit the event\n    function addSolution(uint[2] memory a, uint[2][2] memory b,\n                         uint[2] memory c, uint[2] memory inputs)\n                public\n    {\n        bool isValid = verifyTx(a,b,c,inputs);\n        require(isValid, 'The solution is not valid');\n\n        bytes32 solutionHash = keccak256(abi.encodePacked(a,b,c,inputs));\n\n        Solution memory solution = Solution({\n            hashIndex : solutionHash,\n            senderAddress : msg.sender,\n            isMinted : false\n        });\n\n        solutions[msg.sender] = solution;\n        solutionsArr.push(solution);\n        emit SolutionAdded (solutionHash, msg.sender);\n    }\n\n// TODO Create a function to mint new NFT only after the solution has been verified\n\n    function mint(address to, uint tokenId)\n        public\n        returns(bool)\n    {\n        //  - make sure the solution is unique (has not been used before)\n        Solution memory solution = solutions[to];\n        require(!solution.isMinted, 'this solution is used before');\n\n        _mint(to, tokenId);\n        solutions[to].isMinted = true;\n\n        //  - make surehandle metadata as well as tokenSuplly\n        _setTokenURI(tokenId);\n        return true;\n    }\n\n    constructor(string memory name, string memory symbol)\n    ERC721TokenComplete(name, symbol) public {}\n\n    function getArrLength() external returns(uint8){\n       \n        uint8 len = uint8(solutionsArr.length);\n        return len;\n    }\n\n}\n\n\n\n\n\n\n\n\n\n\n\n\n\n\n\n\n\n\n\n\n\n\n\n\n\n\n",
  "sourcePath": "C:/Users/livel/Dropbox/coding/udacity/blockchain/realEstate/Blockchain-Capstone/eth-contracts/contracts/SolnSquareVerifier.sol",
  "compiler": {
    "name": "solc",
    "version": "0.5.8+commit.23d335f2.Emscripten.clang"
  },
  "schemaVersion": "3.0.16",
  "updatedAt": "2019-11-04T10:31:58.225Z",
  "devdoc": {
    "methods": {
      "isApprovedForAll(address,address)": {
        "details": "Tells whether an operator is approved by a given owner",
        "params": {
          "operator": "operator address which you want to query the approval of",
          "owner": "owner address which you want to query the approval of"
        },
        "return": "bool whether the given operator is approved by the given owner"
      },
      "setApprovalForAll(address,bool)": {
        "details": "Sets or unsets the approval of a given operator An operator is allowed to transfer all tokens of the sender on their behalf",
        "params": {
          "approved": "representing the status of the approval to be set",
          "to": "operator address to set the approval"
        }
      },
      "supportsInterface(bytes4)": {
        "details": "implement supportsInterface(bytes4) using a lookup table"
      },
      "tokenByIndex(uint256)": {
        "details": "Gets the token ID at a given index of all the tokens in this contract Reverts if the index is greater or equal to the total number of tokens",
        "params": {
          "index": "uint256 representing the index to be accessed of the tokens list"
        },
        "return": "uint256 token ID at the given index of the tokens list"
      },
      "tokenOfOwnerByIndex(address,uint256)": {
        "details": "Gets the token ID at a given index of the tokens list of the requested owner",
        "params": {
          "index": "uint256 representing the index to be accessed of the requested tokens list",
          "owner": "address owning the tokens list to be accessed"
        },
        "return": "uint256 token ID at the given index of the tokens list owned by the requested address"
      },
      "totalSupply()": {
        "details": "Gets the total amount of tokens stored by the contract",
        "return": "uint256 representing the total amount of tokens"
      }
    }
  },
  "userdoc": {
    "methods": {}
  }
}